{"contracts/Lock.sol":{"Certification":{"abi":[{"inputs":[{"internalType":"address","name":"_manager","type":"address"},{"internalType":"string","name":"_orgName","type":"string"},{"internalType":"uint16","name":"_orgId","type":"uint16"},{"internalType":"address","name":"_orgAddress","type":"address"}],"stateMutability":"nonpayable","type":"constructor"},{"inputs":[{"internalType":"string","name":"certId","type":"string"},{"internalType":"bytes32","name":"hashedCertificate","type":"bytes32"}],"name":"createCertificate","outputs":[],"stateMutability":"nonpayable","type":"function"},{"inputs":[],"name":"expireContract","outputs":[],"stateMutability":"nonpayable","type":"function"},{"inputs":[],"name":"isContractExpired","outputs":[{"internalType":"bool","name":"","type":"bool"}],"stateMutability":"view","type":"function"},{"inputs":[],"name":"manager","outputs":[{"internalType":"address","name":"","type":"address"}],"stateMutability":"view","type":"function"},{"inputs":[],"name":"orgAddress","outputs":[{"internalType":"address","name":"","type":"address"}],"stateMutability":"view","type":"function"},{"inputs":[],"name":"orgId","outputs":[{"internalType":"uint16","name":"","type":"uint16"}],"stateMutability":"view","type":"function"},{"inputs":[],"name":"orgName","outputs":[{"internalType":"string","name":"","type":"string"}],"stateMutability":"view","type":"function"},{"inputs":[{"internalType":"string","name":"certId","type":"string"},{"internalType":"bytes32","name":"hashToValidate","type":"bytes32"}],"name":"validateCertificate","outputs":[{"internalType":"bool","name":"","type":"bool"}],"stateMutability":"view","type":"function"}],"evm":{"bytecode":{"linkReferences":{},"object":"60806040523480156200001157600080fd5b506040516200127638038062001276833981810160405281019062000037919062000344565b83600260006101000a81548173ffffffffffffffffffffffffffffffffffffffff021916908373ffffffffffffffffffffffffffffffffffffffff160217905550826000908162000089919062000620565b5081600160006101000a81548161ffff021916908361ffff16021790555080600160026101000a81548173ffffffffffffffffffffffffffffffffffffffff021916908373ffffffffffffffffffffffffffffffffffffffff1602179055506000600260146101000a81548160ff0219169083151502179055505050505062000707565b6000604051905090565b600080fd5b600080fd5b600073ffffffffffffffffffffffffffffffffffffffff82169050919050565b60006200014e8262000121565b9050919050565b620001608162000141565b81146200016c57600080fd5b50565b600081519050620001808162000155565b92915050565b600080fd5b600080fd5b6000601f19601f8301169050919050565b7f4e487b7100000000000000000000000000000000000000000000000000000000600052604160045260246000fd5b620001db8262000190565b810181811067ffffffffffffffff82111715620001fd57620001fc620001a1565b5b80604052505050565b6000620002126200010d565b9050620002208282620001d0565b919050565b600067ffffffffffffffff821115620002435762000242620001a1565b5b6200024e8262000190565b9050602081019050919050565b60005b838110156200027b5780820151818401526020810190506200025e565b60008484015250505050565b60006200029e620002988462000225565b62000206565b905082815260208101848484011115620002bd57620002bc6200018b565b5b620002ca8482856200025b565b509392505050565b600082601f830112620002ea57620002e962000186565b5b8151620002fc84826020860162000287565b91505092915050565b600061ffff82169050919050565b6200031e8162000305565b81146200032a57600080fd5b50565b6000815190506200033e8162000313565b92915050565b6000806000806080858703121562000361576200036062000117565b5b600062000371878288016200016f565b945050602085015167ffffffffffffffff8111156200039557620003946200011c565b5b620003a387828801620002d2565b9350506040620003b6878288016200032d565b9250506060620003c9878288016200016f565b91505092959194509250565b600081519050919050565b7f4e487b7100000000000000000000000000000000000000000000000000000000600052602260045260246000fd5b600060028204905060018216806200042857607f821691505b6020821081036200043e576200043d620003e0565b5b50919050565b60008190508160005260206000209050919050565b60006020601f8301049050919050565b600082821b905092915050565b600060088302620004a87fffffffffffffffffffffffffffffffffffffffffffffffffffffffffffffffff8262000469565b620004b4868362000469565b95508019841693508086168417925050509392505050565b6000819050919050565b6000819050919050565b600062000501620004fb620004f584620004cc565b620004d6565b620004cc565b9050919050565b6000819050919050565b6200051d83620004e0565b620005356200052c8262000508565b84845462000476565b825550505050565b600090565b6200054c6200053d565b6200055981848462000512565b505050565b5b8181101562000581576200057560008262000542565b6001810190506200055f565b5050565b601f821115620005d0576200059a8162000444565b620005a58462000459565b81016020851015620005b5578190505b620005cd620005c48562000459565b8301826200055e565b50505b505050565b600082821c905092915050565b6000620005f560001984600802620005d5565b1980831691505092915050565b6000620006108383620005e2565b9150826002028217905092915050565b6200062b82620003d5565b67ffffffffffffffff811115620006475762000646620001a1565b5b6200065382546200040f565b6200066082828562000585565b600060209050601f83116001811462000698576000841562000683578287015190505b6200068f858262000602565b865550620006ff565b601f198416620006a88662000444565b60005b82811015620006d257848901518255600182019150602085019450602081019050620006ab565b86831015620006f25784890151620006ee601f891682620005e2565b8355505b6001600288020188555050505b505050505050565b610b5f80620007176000396000f3fe608060405234801561001057600080fd5b50600436106100885760003560e01c8063797ea25d1161005b578063797ea25d146100f157806381dbb5e11461010f578063ea8b5ca31461013f578063eb537e911461015d57610088565b80630f73d0b41461008d5780631386dc2d146100975780631730bdfe146100b5578063481c6a75146100d3575b600080fd5b610095610179565b005b61009f610226565b6040516100ac91906105ff565b60405180910390f35b6100bd6102b4565b6040516100ca919061063e565b60405180910390f35b6100db6102c8565b6040516100e8919061069a565b60405180910390f35b6100f96102ee565b604051610106919061069a565b60405180910390f35b61012960048036038101906101249190610834565b610314565b60405161013691906108ab565b60405180910390f35b6101476103f2565b60405161015491906108ab565b60405180910390f35b61017760048036038101906101729190610834565b610405565b005b600260009054906101000a900473ffffffffffffffffffffffffffffffffffffffff1673ffffffffffffffffffffffffffffffffffffffff163373ffffffffffffffffffffffffffffffffffffffff1614610209576040517f08c379a000000000000000000000000000000000000000000000000000000000815260040161020090610912565b60405180910390fd5b6001600260146101000a81548160ff021916908315150217905550565b6000805461023390610961565b80601f016020809104026020016040519081016040528092919081815260200182805461025f90610961565b80156102ac5780601f10610281576101008083540402835291602001916102ac565b820191906000526020600020905b81548152906001019060200180831161028f57829003601f168201915b505050505081565b600160009054906101000a900461ffff1681565b600260009054906101000a900473ffffffffffffffffffffffffffffffffffffffff1681565b600160029054906101000a900473ffffffffffffffffffffffffffffffffffffffff1681565b6000600260149054906101000a900460ff1615610366576040517f08c379a000000000000000000000000000000000000000000000000000000000815260040161035d906109de565b60405180910390fd5b6000801b60038460405161037a9190610a3a565b908152602001604051809103902054036103c9576040517f08c379a00000000000000000000000000000000000000000000000000000000081526004016103c090610a9d565b60405180910390fd5b6003836040516103d99190610a3a565b9081526020016040518091039020548214905092915050565b600260149054906101000a900460ff1681565b600260009054906101000a900473ffffffffffffffffffffffffffffffffffffffff1673ffffffffffffffffffffffffffffffffffffffff163373ffffffffffffffffffffffffffffffffffffffff1614610495576040517f08c379a000000000000000000000000000000000000000000000000000000000815260040161048c90610912565b60405180910390fd5b600260149054906101000a900460ff16156104e5576040517f08c379a00000000000000000000000000000000000000000000000000000000081526004016104dc906109de565b60405180910390fd5b6000801b6003836040516104f99190610a3a565b90815260200160405180910390205414610548576040517f08c379a000000000000000000000000000000000000000000000000000000000815260040161053f90610b09565b60405180910390fd5b806003836040516105599190610a3a565b9081526020016040518091039020819055505050565b600081519050919050565b600082825260208201905092915050565b60005b838110156105a957808201518184015260208101905061058e565b60008484015250505050565b6000601f19601f8301169050919050565b60006105d18261056f565b6105db818561057a565b93506105eb81856020860161058b565b6105f4816105b5565b840191505092915050565b6000602082019050818103600083015261061981846105c6565b905092915050565b600061ffff82169050919050565b61063881610621565b82525050565b6000602082019050610653600083018461062f565b92915050565b600073ffffffffffffffffffffffffffffffffffffffff82169050919050565b600061068482610659565b9050919050565b61069481610679565b82525050565b60006020820190506106af600083018461068b565b92915050565b6000604051905090565b600080fd5b600080fd5b600080fd5b600080fd5b7f4e487b7100000000000000000000000000000000000000000000000000000000600052604160045260246000fd5b61070b826105b5565b810181811067ffffffffffffffff8211171561072a576107296106d3565b5b80604052505050565b600061073d6106b5565b90506107498282610702565b919050565b600067ffffffffffffffff821115610769576107686106d3565b5b610772826105b5565b9050602081019050919050565b82818337600083830152505050565b60006107a161079c8461074e565b610733565b9050828152602081018484840111156107bd576107bc6106ce565b5b6107c884828561077f565b509392505050565b600082601f8301126107e5576107e46106c9565b5b81356107f584826020860161078e565b91505092915050565b6000819050919050565b610811816107fe565b811461081c57600080fd5b50565b60008135905061082e81610808565b92915050565b6000806040838503121561084b5761084a6106bf565b5b600083013567ffffffffffffffff811115610869576108686106c4565b5b610875858286016107d0565b92505060206108868582860161081f565b9150509250929050565b60008115159050919050565b6108a581610890565b82525050565b60006020820190506108c0600083018461089c565b92915050565b7f4e6f7420617574686f72697a6564000000000000000000000000000000000000600082015250565b60006108fc600e8361057a565b9150610907826108c6565b602082019050919050565b6000602082019050818103600083015261092b816108ef565b9050919050565b7f4e487b7100000000000000000000000000000000000000000000000000000000600052602260045260246000fd5b6000600282049050600182168061097957607f821691505b60208210810361098c5761098b610932565b5b50919050565b7f436f6e7472616374206578706972656400000000000000000000000000000000600082015250565b60006109c860108361057a565b91506109d382610992565b602082019050919050565b600060208201905081810360008301526109f7816109bb565b9050919050565b600081905092915050565b6000610a148261056f565b610a1e81856109fe565b9350610a2e81856020860161058b565b80840191505092915050565b6000610a468284610a09565b915081905092915050565b7f436572746966696361746520696420646f6573206e6f74206578697374000000600082015250565b6000610a87601d8361057a565b9150610a9282610a51565b602082019050919050565b60006020820190508181036000830152610ab681610a7a565b9050919050565b7f436572746966696361746520696420616c726561647920657869737473000000600082015250565b6000610af3601d8361057a565b9150610afe82610abd565b602082019050919050565b60006020820190508181036000830152610b2281610ae6565b905091905056fea2646970667358221220029b99f05b10548771e184f38df876bc45f50f738e331ab3426ec8fcf06dc97464736f6c63430008140033","opcodes":"PUSH1 0x80 PUSH1 0x40 MSTORE CALLVALUE DUP1 ISZERO PUSH3 0x11 JUMPI PUSH1 0x0 DUP1 REVERT JUMPDEST POP PUSH1 0x40 MLOAD PUSH3 0x1276 CODESIZE SUB DUP1 PUSH3 0x1276 DUP4 CODECOPY DUP2 DUP2 ADD PUSH1 0x40 MSTORE DUP2 ADD SWAP1 PUSH3 0x37 SWAP2 SWAP1 PUSH3 0x344 JUMP JUMPDEST DUP4 PUSH1 0x2 PUSH1 0x0 PUSH2 0x100 EXP DUP2 SLOAD DUP2 PUSH20 0xFFFFFFFFFFFFFFFFFFFFFFFFFFFFFFFFFFFFFFFF MUL NOT AND SWAP1 DUP4 PUSH20 0xFFFFFFFFFFFFFFFFFFFFFFFFFFFFFFFFFFFFFFFF AND MUL OR SWAP1 SSTORE POP DUP3 PUSH1 0x0 SWAP1 DUP2 PUSH3 0x89 SWAP2 SWAP1 PUSH3 0x620 JUMP JUMPDEST POP DUP2 PUSH1 0x1 PUSH1 0x0 PUSH2 0x100 EXP DUP2 SLOAD DUP2 PUSH2 0xFFFF MUL NOT AND SWAP1 DUP4 PUSH2 0xFFFF AND MUL OR SWAP1 SSTORE POP DUP1 PUSH1 0x1 PUSH1 0x2 PUSH2 0x100 EXP DUP2 SLOAD DUP2 PUSH20 0xFFFFFFFFFFFFFFFFFFFFFFFFFFFFFFFFFFFFFFFF MUL NOT AND SWAP1 DUP4 PUSH20 0xFFFFFFFFFFFFFFFFFFFFFFFFFFFFFFFFFFFFFFFF AND MUL OR SWAP1 SSTORE POP PUSH1 0x0 PUSH1 0x2 PUSH1 0x14 PUSH2 0x100 EXP DUP2 SLOAD DUP2 PUSH1 0xFF MUL NOT AND SWAP1 DUP4 ISZERO ISZERO MUL OR SWAP1 SSTORE POP POP POP POP POP PUSH3 0x707 JUMP JUMPDEST PUSH1 0x0 PUSH1 0x40 MLOAD SWAP1 POP SWAP1 JUMP JUMPDEST PUSH1 0x0 DUP1 REVERT JUMPDEST PUSH1 0x0 DUP1 REVERT JUMPDEST PUSH1 0x0 PUSH20 0xFFFFFFFFFFFFFFFFFFFFFFFFFFFFFFFFFFFFFFFF DUP3 AND SWAP1 POP SWAP2 SWAP1 POP JUMP JUMPDEST PUSH1 0x0 PUSH3 0x14E DUP3 PUSH3 0x121 JUMP JUMPDEST SWAP1 POP SWAP2 SWAP1 POP JUMP JUMPDEST PUSH3 0x160 DUP2 PUSH3 0x141 JUMP JUMPDEST DUP2 EQ PUSH3 0x16C JUMPI PUSH1 0x0 DUP1 REVERT JUMPDEST POP JUMP JUMPDEST PUSH1 0x0 DUP2 MLOAD SWAP1 POP PUSH3 0x180 DUP2 PUSH3 0x155 JUMP JUMPDEST SWAP3 SWAP2 POP POP JUMP JUMPDEST PUSH1 0x0 DUP1 REVERT JUMPDEST PUSH1 0x0 DUP1 REVERT JUMPDEST PUSH1 0x0 PUSH1 0x1F NOT PUSH1 0x1F DUP4 ADD AND SWAP1 POP SWAP2 SWAP1 POP JUMP JUMPDEST PUSH32 0x4E487B7100000000000000000000000000000000000000000000000000000000 PUSH1 0x0 MSTORE PUSH1 0x41 PUSH1 0x4 MSTORE PUSH1 0x24 PUSH1 0x0 REVERT JUMPDEST PUSH3 0x1DB DUP3 PUSH3 0x190 JUMP JUMPDEST DUP2 ADD DUP2 DUP2 LT PUSH8 0xFFFFFFFFFFFFFFFF DUP3 GT OR ISZERO PUSH3 0x1FD JUMPI PUSH3 0x1FC PUSH3 0x1A1 JUMP JUMPDEST JUMPDEST DUP1 PUSH1 0x40 MSTORE POP POP POP JUMP JUMPDEST PUSH1 0x0 PUSH3 0x212 PUSH3 0x10D JUMP JUMPDEST SWAP1 POP PUSH3 0x220 DUP3 DUP3 PUSH3 0x1D0 JUMP JUMPDEST SWAP2 SWAP1 POP JUMP JUMPDEST PUSH1 0x0 PUSH8 0xFFFFFFFFFFFFFFFF DUP3 GT ISZERO PUSH3 0x243 JUMPI PUSH3 0x242 PUSH3 0x1A1 JUMP JUMPDEST JUMPDEST PUSH3 0x24E DUP3 PUSH3 0x190 JUMP JUMPDEST SWAP1 POP PUSH1 0x20 DUP2 ADD SWAP1 POP SWAP2 SWAP1 POP JUMP JUMPDEST PUSH1 0x0 JUMPDEST DUP4 DUP2 LT ISZERO PUSH3 0x27B JUMPI DUP1 DUP3 ADD MLOAD DUP2 DUP5 ADD MSTORE PUSH1 0x20 DUP2 ADD SWAP1 POP PUSH3 0x25E JUMP JUMPDEST PUSH1 0x0 DUP5 DUP5 ADD MSTORE POP POP POP POP JUMP JUMPDEST PUSH1 0x0 PUSH3 0x29E PUSH3 0x298 DUP5 PUSH3 0x225 JUMP JUMPDEST PUSH3 0x206 JUMP JUMPDEST SWAP1 POP DUP3 DUP2 MSTORE PUSH1 0x20 DUP2 ADD DUP5 DUP5 DUP5 ADD GT ISZERO PUSH3 0x2BD JUMPI PUSH3 0x2BC PUSH3 0x18B JUMP JUMPDEST JUMPDEST PUSH3 0x2CA DUP5 DUP3 DUP6 PUSH3 0x25B JUMP JUMPDEST POP SWAP4 SWAP3 POP POP POP JUMP JUMPDEST PUSH1 0x0 DUP3 PUSH1 0x1F DUP4 ADD SLT PUSH3 0x2EA JUMPI PUSH3 0x2E9 PUSH3 0x186 JUMP JUMPDEST JUMPDEST DUP2 MLOAD PUSH3 0x2FC DUP5 DUP3 PUSH1 0x20 DUP7 ADD PUSH3 0x287 JUMP JUMPDEST SWAP2 POP POP SWAP3 SWAP2 POP POP JUMP JUMPDEST PUSH1 0x0 PUSH2 0xFFFF DUP3 AND SWAP1 POP SWAP2 SWAP1 POP JUMP JUMPDEST PUSH3 0x31E DUP2 PUSH3 0x305 JUMP JUMPDEST DUP2 EQ PUSH3 0x32A JUMPI PUSH1 0x0 DUP1 REVERT JUMPDEST POP JUMP JUMPDEST PUSH1 0x0 DUP2 MLOAD SWAP1 POP PUSH3 0x33E DUP2 PUSH3 0x313 JUMP JUMPDEST SWAP3 SWAP2 POP POP JUMP JUMPDEST PUSH1 0x0 DUP1 PUSH1 0x0 DUP1 PUSH1 0x80 DUP6 DUP8 SUB SLT ISZERO PUSH3 0x361 JUMPI PUSH3 0x360 PUSH3 0x117 JUMP JUMPDEST JUMPDEST PUSH1 0x0 PUSH3 0x371 DUP8 DUP3 DUP9 ADD PUSH3 0x16F JUMP JUMPDEST SWAP5 POP POP PUSH1 0x20 DUP6 ADD MLOAD PUSH8 0xFFFFFFFFFFFFFFFF DUP2 GT ISZERO PUSH3 0x395 JUMPI PUSH3 0x394 PUSH3 0x11C JUMP JUMPDEST JUMPDEST PUSH3 0x3A3 DUP8 DUP3 DUP9 ADD PUSH3 0x2D2 JUMP JUMPDEST SWAP4 POP POP PUSH1 0x40 PUSH3 0x3B6 DUP8 DUP3 DUP9 ADD PUSH3 0x32D JUMP JUMPDEST SWAP3 POP POP PUSH1 0x60 PUSH3 0x3C9 DUP8 DUP3 DUP9 ADD PUSH3 0x16F JUMP JUMPDEST SWAP2 POP POP SWAP3 SWAP6 SWAP2 SWAP5 POP SWAP3 POP JUMP JUMPDEST PUSH1 0x0 DUP2 MLOAD SWAP1 POP SWAP2 SWAP1 POP JUMP JUMPDEST PUSH32 0x4E487B7100000000000000000000000000000000000000000000000000000000 PUSH1 0x0 MSTORE PUSH1 0x22 PUSH1 0x4 MSTORE PUSH1 0x24 PUSH1 0x0 REVERT JUMPDEST PUSH1 0x0 PUSH1 0x2 DUP3 DIV SWAP1 POP PUSH1 0x1 DUP3 AND DUP1 PUSH3 0x428 JUMPI PUSH1 0x7F DUP3 AND SWAP2 POP JUMPDEST PUSH1 0x20 DUP3 LT DUP2 SUB PUSH3 0x43E JUMPI PUSH3 0x43D PUSH3 0x3E0 JUMP JUMPDEST JUMPDEST POP SWAP2 SWAP1 POP JUMP JUMPDEST PUSH1 0x0 DUP2 SWAP1 POP DUP2 PUSH1 0x0 MSTORE PUSH1 0x20 PUSH1 0x0 KECCAK256 SWAP1 POP SWAP2 SWAP1 POP JUMP JUMPDEST PUSH1 0x0 PUSH1 0x20 PUSH1 0x1F DUP4 ADD DIV SWAP1 POP SWAP2 SWAP1 POP JUMP JUMPDEST PUSH1 0x0 DUP3 DUP3 SHL SWAP1 POP SWAP3 SWAP2 POP POP JUMP JUMPDEST PUSH1 0x0 PUSH1 0x8 DUP4 MUL PUSH3 0x4A8 PUSH32 0xFFFFFFFFFFFFFFFFFFFFFFFFFFFFFFFFFFFFFFFFFFFFFFFFFFFFFFFFFFFFFFFF DUP3 PUSH3 0x469 JUMP JUMPDEST PUSH3 0x4B4 DUP7 DUP4 PUSH3 0x469 JUMP JUMPDEST SWAP6 POP DUP1 NOT DUP5 AND SWAP4 POP DUP1 DUP7 AND DUP5 OR SWAP3 POP POP POP SWAP4 SWAP3 POP POP POP JUMP JUMPDEST PUSH1 0x0 DUP2 SWAP1 POP SWAP2 SWAP1 POP JUMP JUMPDEST PUSH1 0x0 DUP2 SWAP1 POP SWAP2 SWAP1 POP JUMP JUMPDEST PUSH1 0x0 PUSH3 0x501 PUSH3 0x4FB PUSH3 0x4F5 DUP5 PUSH3 0x4CC JUMP JUMPDEST PUSH3 0x4D6 JUMP JUMPDEST PUSH3 0x4CC JUMP JUMPDEST SWAP1 POP SWAP2 SWAP1 POP JUMP JUMPDEST PUSH1 0x0 DUP2 SWAP1 POP SWAP2 SWAP1 POP JUMP JUMPDEST PUSH3 0x51D DUP4 PUSH3 0x4E0 JUMP JUMPDEST PUSH3 0x535 PUSH3 0x52C DUP3 PUSH3 0x508 JUMP JUMPDEST DUP5 DUP5 SLOAD PUSH3 0x476 JUMP JUMPDEST DUP3 SSTORE POP POP POP POP JUMP JUMPDEST PUSH1 0x0 SWAP1 JUMP JUMPDEST PUSH3 0x54C PUSH3 0x53D JUMP JUMPDEST PUSH3 0x559 DUP2 DUP5 DUP5 PUSH3 0x512 JUMP JUMPDEST POP POP POP JUMP JUMPDEST JUMPDEST DUP2 DUP2 LT ISZERO PUSH3 0x581 JUMPI PUSH3 0x575 PUSH1 0x0 DUP3 PUSH3 0x542 JUMP JUMPDEST PUSH1 0x1 DUP2 ADD SWAP1 POP PUSH3 0x55F JUMP JUMPDEST POP POP JUMP JUMPDEST PUSH1 0x1F DUP3 GT ISZERO PUSH3 0x5D0 JUMPI PUSH3 0x59A DUP2 PUSH3 0x444 JUMP JUMPDEST PUSH3 0x5A5 DUP5 PUSH3 0x459 JUMP JUMPDEST DUP2 ADD PUSH1 0x20 DUP6 LT ISZERO PUSH3 0x5B5 JUMPI DUP2 SWAP1 POP JUMPDEST PUSH3 0x5CD PUSH3 0x5C4 DUP6 PUSH3 0x459 JUMP JUMPDEST DUP4 ADD DUP3 PUSH3 0x55E JUMP JUMPDEST POP POP JUMPDEST POP POP POP JUMP JUMPDEST PUSH1 0x0 DUP3 DUP3 SHR SWAP1 POP SWAP3 SWAP2 POP POP JUMP JUMPDEST PUSH1 0x0 PUSH3 0x5F5 PUSH1 0x0 NOT DUP5 PUSH1 0x8 MUL PUSH3 0x5D5 JUMP JUMPDEST NOT DUP1 DUP4 AND SWAP2 POP POP SWAP3 SWAP2 POP POP JUMP JUMPDEST PUSH1 0x0 PUSH3 0x610 DUP4 DUP4 PUSH3 0x5E2 JUMP JUMPDEST SWAP2 POP DUP3 PUSH1 0x2 MUL DUP3 OR SWAP1 POP SWAP3 SWAP2 POP POP JUMP JUMPDEST PUSH3 0x62B DUP3 PUSH3 0x3D5 JUMP JUMPDEST PUSH8 0xFFFFFFFFFFFFFFFF DUP2 GT ISZERO PUSH3 0x647 JUMPI PUSH3 0x646 PUSH3 0x1A1 JUMP JUMPDEST JUMPDEST PUSH3 0x653 DUP3 SLOAD PUSH3 0x40F JUMP JUMPDEST PUSH3 0x660 DUP3 DUP3 DUP6 PUSH3 0x585 JUMP JUMPDEST PUSH1 0x0 PUSH1 0x20 SWAP1 POP PUSH1 0x1F DUP4 GT PUSH1 0x1 DUP2 EQ PUSH3 0x698 JUMPI PUSH1 0x0 DUP5 ISZERO PUSH3 0x683 JUMPI DUP3 DUP8 ADD MLOAD SWAP1 POP JUMPDEST PUSH3 0x68F DUP6 DUP3 PUSH3 0x602 JUMP JUMPDEST DUP7 SSTORE POP PUSH3 0x6FF JUMP JUMPDEST PUSH1 0x1F NOT DUP5 AND PUSH3 0x6A8 DUP7 PUSH3 0x444 JUMP JUMPDEST PUSH1 0x0 JUMPDEST DUP3 DUP2 LT ISZERO PUSH3 0x6D2 JUMPI DUP5 DUP10 ADD MLOAD DUP3 SSTORE PUSH1 0x1 DUP3 ADD SWAP2 POP PUSH1 0x20 DUP6 ADD SWAP5 POP PUSH1 0x20 DUP2 ADD SWAP1 POP PUSH3 0x6AB JUMP JUMPDEST DUP7 DUP4 LT ISZERO PUSH3 0x6F2 JUMPI DUP5 DUP10 ADD MLOAD PUSH3 0x6EE PUSH1 0x1F DUP10 AND DUP3 PUSH3 0x5E2 JUMP JUMPDEST DUP4 SSTORE POP JUMPDEST PUSH1 0x1 PUSH1 0x2 DUP9 MUL ADD DUP9 SSTORE POP POP POP JUMPDEST POP POP POP POP POP POP JUMP JUMPDEST PUSH2 0xB5F DUP1 PUSH3 0x717 PUSH1 0x0 CODECOPY PUSH1 0x0 RETURN INVALID PUSH1 0x80 PUSH1 0x40 MSTORE CALLVALUE DUP1 ISZERO PUSH2 0x10 JUMPI PUSH1 0x0 DUP1 REVERT JUMPDEST POP PUSH1 0x4 CALLDATASIZE LT PUSH2 0x88 JUMPI PUSH1 0x0 CALLDATALOAD PUSH1 0xE0 SHR DUP1 PUSH4 0x797EA25D GT PUSH2 0x5B JUMPI DUP1 PUSH4 0x797EA25D EQ PUSH2 0xF1 JUMPI DUP1 PUSH4 0x81DBB5E1 EQ PUSH2 0x10F JUMPI DUP1 PUSH4 0xEA8B5CA3 EQ PUSH2 0x13F JUMPI DUP1 PUSH4 0xEB537E91 EQ PUSH2 0x15D JUMPI PUSH2 0x88 JUMP JUMPDEST DUP1 PUSH4 0xF73D0B4 EQ PUSH2 0x8D JUMPI DUP1 PUSH4 0x1386DC2D EQ PUSH2 0x97 JUMPI DUP1 PUSH4 0x1730BDFE EQ PUSH2 0xB5 JUMPI DUP1 PUSH4 0x481C6A75 EQ PUSH2 0xD3 JUMPI JUMPDEST PUSH1 0x0 DUP1 REVERT JUMPDEST PUSH2 0x95 PUSH2 0x179 JUMP JUMPDEST STOP JUMPDEST PUSH2 0x9F PUSH2 0x226 JUMP JUMPDEST PUSH1 0x40 MLOAD PUSH2 0xAC SWAP2 SWAP1 PUSH2 0x5FF JUMP JUMPDEST PUSH1 0x40 MLOAD DUP1 SWAP2 SUB SWAP1 RETURN JUMPDEST PUSH2 0xBD PUSH2 0x2B4 JUMP JUMPDEST PUSH1 0x40 MLOAD PUSH2 0xCA SWAP2 SWAP1 PUSH2 0x63E JUMP JUMPDEST PUSH1 0x40 MLOAD DUP1 SWAP2 SUB SWAP1 RETURN JUMPDEST PUSH2 0xDB PUSH2 0x2C8 JUMP JUMPDEST PUSH1 0x40 MLOAD PUSH2 0xE8 SWAP2 SWAP1 PUSH2 0x69A JUMP JUMPDEST PUSH1 0x40 MLOAD DUP1 SWAP2 SUB SWAP1 RETURN JUMPDEST PUSH2 0xF9 PUSH2 0x2EE JUMP JUMPDEST PUSH1 0x40 MLOAD PUSH2 0x106 SWAP2 SWAP1 PUSH2 0x69A JUMP JUMPDEST PUSH1 0x40 MLOAD DUP1 SWAP2 SUB SWAP1 RETURN JUMPDEST PUSH2 0x129 PUSH1 0x4 DUP1 CALLDATASIZE SUB DUP2 ADD SWAP1 PUSH2 0x124 SWAP2 SWAP1 PUSH2 0x834 JUMP JUMPDEST PUSH2 0x314 JUMP JUMPDEST PUSH1 0x40 MLOAD PUSH2 0x136 SWAP2 SWAP1 PUSH2 0x8AB JUMP JUMPDEST PUSH1 0x40 MLOAD DUP1 SWAP2 SUB SWAP1 RETURN JUMPDEST PUSH2 0x147 PUSH2 0x3F2 JUMP JUMPDEST PUSH1 0x40 MLOAD PUSH2 0x154 SWAP2 SWAP1 PUSH2 0x8AB JUMP JUMPDEST PUSH1 0x40 MLOAD DUP1 SWAP2 SUB SWAP1 RETURN JUMPDEST PUSH2 0x177 PUSH1 0x4 DUP1 CALLDATASIZE SUB DUP2 ADD SWAP1 PUSH2 0x172 SWAP2 SWAP1 PUSH2 0x834 JUMP JUMPDEST PUSH2 0x405 JUMP JUMPDEST STOP JUMPDEST PUSH1 0x2 PUSH1 0x0 SWAP1 SLOAD SWAP1 PUSH2 0x100 EXP SWAP1 DIV PUSH20 0xFFFFFFFFFFFFFFFFFFFFFFFFFFFFFFFFFFFFFFFF AND PUSH20 0xFFFFFFFFFFFFFFFFFFFFFFFFFFFFFFFFFFFFFFFF AND CALLER PUSH20 0xFFFFFFFFFFFFFFFFFFFFFFFFFFFFFFFFFFFFFFFF AND EQ PUSH2 0x209 JUMPI PUSH1 0x40 MLOAD PUSH32 0x8C379A000000000000000000000000000000000000000000000000000000000 DUP2 MSTORE PUSH1 0x4 ADD PUSH2 0x200 SWAP1 PUSH2 0x912 JUMP JUMPDEST PUSH1 0x40 MLOAD DUP1 SWAP2 SUB SWAP1 REVERT JUMPDEST PUSH1 0x1 PUSH1 0x2 PUSH1 0x14 PUSH2 0x100 EXP DUP2 SLOAD DUP2 PUSH1 0xFF MUL NOT AND SWAP1 DUP4 ISZERO ISZERO MUL OR SWAP1 SSTORE POP JUMP JUMPDEST PUSH1 0x0 DUP1 SLOAD PUSH2 0x233 SWAP1 PUSH2 0x961 JUMP JUMPDEST DUP1 PUSH1 0x1F ADD PUSH1 0x20 DUP1 SWAP2 DIV MUL PUSH1 0x20 ADD PUSH1 0x40 MLOAD SWAP1 DUP2 ADD PUSH1 0x40 MSTORE DUP1 SWAP3 SWAP2 SWAP1 DUP2 DUP2 MSTORE PUSH1 0x20 ADD DUP3 DUP1 SLOAD PUSH2 0x25F SWAP1 PUSH2 0x961 JUMP JUMPDEST DUP1 ISZERO PUSH2 0x2AC JUMPI DUP1 PUSH1 0x1F LT PUSH2 0x281 JUMPI PUSH2 0x100 DUP1 DUP4 SLOAD DIV MUL DUP4 MSTORE SWAP2 PUSH1 0x20 ADD SWAP2 PUSH2 0x2AC JUMP JUMPDEST DUP3 ADD SWAP2 SWAP1 PUSH1 0x0 MSTORE PUSH1 0x20 PUSH1 0x0 KECCAK256 SWAP1 JUMPDEST DUP2 SLOAD DUP2 MSTORE SWAP1 PUSH1 0x1 ADD SWAP1 PUSH1 0x20 ADD DUP1 DUP4 GT PUSH2 0x28F JUMPI DUP3 SWAP1 SUB PUSH1 0x1F AND DUP3 ADD SWAP2 JUMPDEST POP POP POP POP POP DUP2 JUMP JUMPDEST PUSH1 0x1 PUSH1 0x0 SWAP1 SLOAD SWAP1 PUSH2 0x100 EXP SWAP1 DIV PUSH2 0xFFFF AND DUP2 JUMP JUMPDEST PUSH1 0x2 PUSH1 0x0 SWAP1 SLOAD SWAP1 PUSH2 0x100 EXP SWAP1 DIV PUSH20 0xFFFFFFFFFFFFFFFFFFFFFFFFFFFFFFFFFFFFFFFF AND DUP2 JUMP JUMPDEST PUSH1 0x1 PUSH1 0x2 SWAP1 SLOAD SWAP1 PUSH2 0x100 EXP SWAP1 DIV PUSH20 0xFFFFFFFFFFFFFFFFFFFFFFFFFFFFFFFFFFFFFFFF AND DUP2 JUMP JUMPDEST PUSH1 0x0 PUSH1 0x2 PUSH1 0x14 SWAP1 SLOAD SWAP1 PUSH2 0x100 EXP SWAP1 DIV PUSH1 0xFF AND ISZERO PUSH2 0x366 JUMPI PUSH1 0x40 MLOAD PUSH32 0x8C379A000000000000000000000000000000000000000000000000000000000 DUP2 MSTORE PUSH1 0x4 ADD PUSH2 0x35D SWAP1 PUSH2 0x9DE JUMP JUMPDEST PUSH1 0x40 MLOAD DUP1 SWAP2 SUB SWAP1 REVERT JUMPDEST PUSH1 0x0 DUP1 SHL PUSH1 0x3 DUP5 PUSH1 0x40 MLOAD PUSH2 0x37A SWAP2 SWAP1 PUSH2 0xA3A JUMP JUMPDEST SWAP1 DUP2 MSTORE PUSH1 0x20 ADD PUSH1 0x40 MLOAD DUP1 SWAP2 SUB SWAP1 KECCAK256 SLOAD SUB PUSH2 0x3C9 JUMPI PUSH1 0x40 MLOAD PUSH32 0x8C379A000000000000000000000000000000000000000000000000000000000 DUP2 MSTORE PUSH1 0x4 ADD PUSH2 0x3C0 SWAP1 PUSH2 0xA9D JUMP JUMPDEST PUSH1 0x40 MLOAD DUP1 SWAP2 SUB SWAP1 REVERT JUMPDEST PUSH1 0x3 DUP4 PUSH1 0x40 MLOAD PUSH2 0x3D9 SWAP2 SWAP1 PUSH2 0xA3A JUMP JUMPDEST SWAP1 DUP2 MSTORE PUSH1 0x20 ADD PUSH1 0x40 MLOAD DUP1 SWAP2 SUB SWAP1 KECCAK256 SLOAD DUP3 EQ SWAP1 POP SWAP3 SWAP2 POP POP JUMP JUMPDEST PUSH1 0x2 PUSH1 0x14 SWAP1 SLOAD SWAP1 PUSH2 0x100 EXP SWAP1 DIV PUSH1 0xFF AND DUP2 JUMP JUMPDEST PUSH1 0x2 PUSH1 0x0 SWAP1 SLOAD SWAP1 PUSH2 0x100 EXP SWAP1 DIV PUSH20 0xFFFFFFFFFFFFFFFFFFFFFFFFFFFFFFFFFFFFFFFF AND PUSH20 0xFFFFFFFFFFFFFFFFFFFFFFFFFFFFFFFFFFFFFFFF AND CALLER PUSH20 0xFFFFFFFFFFFFFFFFFFFFFFFFFFFFFFFFFFFFFFFF AND EQ PUSH2 0x495 JUMPI PUSH1 0x40 MLOAD PUSH32 0x8C379A000000000000000000000000000000000000000000000000000000000 DUP2 MSTORE PUSH1 0x4 ADD PUSH2 0x48C SWAP1 PUSH2 0x912 JUMP JUMPDEST PUSH1 0x40 MLOAD DUP1 SWAP2 SUB SWAP1 REVERT JUMPDEST PUSH1 0x2 PUSH1 0x14 SWAP1 SLOAD SWAP1 PUSH2 0x100 EXP SWAP1 DIV PUSH1 0xFF AND ISZERO PUSH2 0x4E5 JUMPI PUSH1 0x40 MLOAD PUSH32 0x8C379A000000000000000000000000000000000000000000000000000000000 DUP2 MSTORE PUSH1 0x4 ADD PUSH2 0x4DC SWAP1 PUSH2 0x9DE JUMP JUMPDEST PUSH1 0x40 MLOAD DUP1 SWAP2 SUB SWAP1 REVERT JUMPDEST PUSH1 0x0 DUP1 SHL PUSH1 0x3 DUP4 PUSH1 0x40 MLOAD PUSH2 0x4F9 SWAP2 SWAP1 PUSH2 0xA3A JUMP JUMPDEST SWAP1 DUP2 MSTORE PUSH1 0x20 ADD PUSH1 0x40 MLOAD DUP1 SWAP2 SUB SWAP1 KECCAK256 SLOAD EQ PUSH2 0x548 JUMPI PUSH1 0x40 MLOAD PUSH32 0x8C379A000000000000000000000000000000000000000000000000000000000 DUP2 MSTORE PUSH1 0x4 ADD PUSH2 0x53F SWAP1 PUSH2 0xB09 JUMP JUMPDEST PUSH1 0x40 MLOAD DUP1 SWAP2 SUB SWAP1 REVERT JUMPDEST DUP1 PUSH1 0x3 DUP4 PUSH1 0x40 MLOAD PUSH2 0x559 SWAP2 SWAP1 PUSH2 0xA3A JUMP JUMPDEST SWAP1 DUP2 MSTORE PUSH1 0x20 ADD PUSH1 0x40 MLOAD DUP1 SWAP2 SUB SWAP1 KECCAK256 DUP2 SWAP1 SSTORE POP POP POP JUMP JUMPDEST PUSH1 0x0 DUP2 MLOAD SWAP1 POP SWAP2 SWAP1 POP JUMP JUMPDEST PUSH1 0x0 DUP3 DUP3 MSTORE PUSH1 0x20 DUP3 ADD SWAP1 POP SWAP3 SWAP2 POP POP JUMP JUMPDEST PUSH1 0x0 JUMPDEST DUP4 DUP2 LT ISZERO PUSH2 0x5A9 JUMPI DUP1 DUP3 ADD MLOAD DUP2 DUP5 ADD MSTORE PUSH1 0x20 DUP2 ADD SWAP1 POP PUSH2 0x58E JUMP JUMPDEST PUSH1 0x0 DUP5 DUP5 ADD MSTORE POP POP POP POP JUMP JUMPDEST PUSH1 0x0 PUSH1 0x1F NOT PUSH1 0x1F DUP4 ADD AND SWAP1 POP SWAP2 SWAP1 POP JUMP JUMPDEST PUSH1 0x0 PUSH2 0x5D1 DUP3 PUSH2 0x56F JUMP JUMPDEST PUSH2 0x5DB DUP2 DUP6 PUSH2 0x57A JUMP JUMPDEST SWAP4 POP PUSH2 0x5EB DUP2 DUP6 PUSH1 0x20 DUP7 ADD PUSH2 0x58B JUMP JUMPDEST PUSH2 0x5F4 DUP2 PUSH2 0x5B5 JUMP JUMPDEST DUP5 ADD SWAP2 POP POP SWAP3 SWAP2 POP POP JUMP JUMPDEST PUSH1 0x0 PUSH1 0x20 DUP3 ADD SWAP1 POP DUP2 DUP2 SUB PUSH1 0x0 DUP4 ADD MSTORE PUSH2 0x619 DUP2 DUP5 PUSH2 0x5C6 JUMP JUMPDEST SWAP1 POP SWAP3 SWAP2 POP POP JUMP JUMPDEST PUSH1 0x0 PUSH2 0xFFFF DUP3 AND SWAP1 POP SWAP2 SWAP1 POP JUMP JUMPDEST PUSH2 0x638 DUP2 PUSH2 0x621 JUMP JUMPDEST DUP3 MSTORE POP POP JUMP JUMPDEST PUSH1 0x0 PUSH1 0x20 DUP3 ADD SWAP1 POP PUSH2 0x653 PUSH1 0x0 DUP4 ADD DUP5 PUSH2 0x62F JUMP JUMPDEST SWAP3 SWAP2 POP POP JUMP JUMPDEST PUSH1 0x0 PUSH20 0xFFFFFFFFFFFFFFFFFFFFFFFFFFFFFFFFFFFFFFFF DUP3 AND SWAP1 POP SWAP2 SWAP1 POP JUMP JUMPDEST PUSH1 0x0 PUSH2 0x684 DUP3 PUSH2 0x659 JUMP JUMPDEST SWAP1 POP SWAP2 SWAP1 POP JUMP JUMPDEST PUSH2 0x694 DUP2 PUSH2 0x679 JUMP JUMPDEST DUP3 MSTORE POP POP JUMP JUMPDEST PUSH1 0x0 PUSH1 0x20 DUP3 ADD SWAP1 POP PUSH2 0x6AF PUSH1 0x0 DUP4 ADD DUP5 PUSH2 0x68B JUMP JUMPDEST SWAP3 SWAP2 POP POP JUMP JUMPDEST PUSH1 0x0 PUSH1 0x40 MLOAD SWAP1 POP SWAP1 JUMP JUMPDEST PUSH1 0x0 DUP1 REVERT JUMPDEST PUSH1 0x0 DUP1 REVERT JUMPDEST PUSH1 0x0 DUP1 REVERT JUMPDEST PUSH1 0x0 DUP1 REVERT JUMPDEST PUSH32 0x4E487B7100000000000000000000000000000000000000000000000000000000 PUSH1 0x0 MSTORE PUSH1 0x41 PUSH1 0x4 MSTORE PUSH1 0x24 PUSH1 0x0 REVERT JUMPDEST PUSH2 0x70B DUP3 PUSH2 0x5B5 JUMP JUMPDEST DUP2 ADD DUP2 DUP2 LT PUSH8 0xFFFFFFFFFFFFFFFF DUP3 GT OR ISZERO PUSH2 0x72A JUMPI PUSH2 0x729 PUSH2 0x6D3 JUMP JUMPDEST JUMPDEST DUP1 PUSH1 0x40 MSTORE POP POP POP JUMP JUMPDEST PUSH1 0x0 PUSH2 0x73D PUSH2 0x6B5 JUMP JUMPDEST SWAP1 POP PUSH2 0x749 DUP3 DUP3 PUSH2 0x702 JUMP JUMPDEST SWAP2 SWAP1 POP JUMP JUMPDEST PUSH1 0x0 PUSH8 0xFFFFFFFFFFFFFFFF DUP3 GT ISZERO PUSH2 0x769 JUMPI PUSH2 0x768 PUSH2 0x6D3 JUMP JUMPDEST JUMPDEST PUSH2 0x772 DUP3 PUSH2 0x5B5 JUMP JUMPDEST SWAP1 POP PUSH1 0x20 DUP2 ADD SWAP1 POP SWAP2 SWAP1 POP JUMP JUMPDEST DUP3 DUP2 DUP4 CALLDATACOPY PUSH1 0x0 DUP4 DUP4 ADD MSTORE POP POP POP JUMP JUMPDEST PUSH1 0x0 PUSH2 0x7A1 PUSH2 0x79C DUP5 PUSH2 0x74E JUMP JUMPDEST PUSH2 0x733 JUMP JUMPDEST SWAP1 POP DUP3 DUP2 MSTORE PUSH1 0x20 DUP2 ADD DUP5 DUP5 DUP5 ADD GT ISZERO PUSH2 0x7BD JUMPI PUSH2 0x7BC PUSH2 0x6CE JUMP JUMPDEST JUMPDEST PUSH2 0x7C8 DUP5 DUP3 DUP6 PUSH2 0x77F JUMP JUMPDEST POP SWAP4 SWAP3 POP POP POP JUMP JUMPDEST PUSH1 0x0 DUP3 PUSH1 0x1F DUP4 ADD SLT PUSH2 0x7E5 JUMPI PUSH2 0x7E4 PUSH2 0x6C9 JUMP JUMPDEST JUMPDEST DUP2 CALLDATALOAD PUSH2 0x7F5 DUP5 DUP3 PUSH1 0x20 DUP7 ADD PUSH2 0x78E JUMP JUMPDEST SWAP2 POP POP SWAP3 SWAP2 POP POP JUMP JUMPDEST PUSH1 0x0 DUP2 SWAP1 POP SWAP2 SWAP1 POP JUMP JUMPDEST PUSH2 0x811 DUP2 PUSH2 0x7FE JUMP JUMPDEST DUP2 EQ PUSH2 0x81C JUMPI PUSH1 0x0 DUP1 REVERT JUMPDEST POP JUMP JUMPDEST PUSH1 0x0 DUP2 CALLDATALOAD SWAP1 POP PUSH2 0x82E DUP2 PUSH2 0x808 JUMP JUMPDEST SWAP3 SWAP2 POP POP JUMP JUMPDEST PUSH1 0x0 DUP1 PUSH1 0x40 DUP4 DUP6 SUB SLT ISZERO PUSH2 0x84B JUMPI PUSH2 0x84A PUSH2 0x6BF JUMP JUMPDEST JUMPDEST PUSH1 0x0 DUP4 ADD CALLDATALOAD PUSH8 0xFFFFFFFFFFFFFFFF DUP2 GT ISZERO PUSH2 0x869 JUMPI PUSH2 0x868 PUSH2 0x6C4 JUMP JUMPDEST JUMPDEST PUSH2 0x875 DUP6 DUP3 DUP7 ADD PUSH2 0x7D0 JUMP JUMPDEST SWAP3 POP POP PUSH1 0x20 PUSH2 0x886 DUP6 DUP3 DUP7 ADD PUSH2 0x81F JUMP JUMPDEST SWAP2 POP POP SWAP3 POP SWAP3 SWAP1 POP JUMP JUMPDEST PUSH1 0x0 DUP2 ISZERO ISZERO SWAP1 POP SWAP2 SWAP1 POP JUMP JUMPDEST PUSH2 0x8A5 DUP2 PUSH2 0x890 JUMP JUMPDEST DUP3 MSTORE POP POP JUMP JUMPDEST PUSH1 0x0 PUSH1 0x20 DUP3 ADD SWAP1 POP PUSH2 0x8C0 PUSH1 0x0 DUP4 ADD DUP5 PUSH2 0x89C JUMP JUMPDEST SWAP3 SWAP2 POP POP JUMP JUMPDEST PUSH32 0x4E6F7420617574686F72697A6564000000000000000000000000000000000000 PUSH1 0x0 DUP3 ADD MSTORE POP JUMP JUMPDEST PUSH1 0x0 PUSH2 0x8FC PUSH1 0xE DUP4 PUSH2 0x57A JUMP JUMPDEST SWAP2 POP PUSH2 0x907 DUP3 PUSH2 0x8C6 JUMP JUMPDEST PUSH1 0x20 DUP3 ADD SWAP1 POP SWAP2 SWAP1 POP JUMP JUMPDEST PUSH1 0x0 PUSH1 0x20 DUP3 ADD SWAP1 POP DUP2 DUP2 SUB PUSH1 0x0 DUP4 ADD MSTORE PUSH2 0x92B DUP2 PUSH2 0x8EF JUMP JUMPDEST SWAP1 POP SWAP2 SWAP1 POP JUMP JUMPDEST PUSH32 0x4E487B7100000000000000000000000000000000000000000000000000000000 PUSH1 0x0 MSTORE PUSH1 0x22 PUSH1 0x4 MSTORE PUSH1 0x24 PUSH1 0x0 REVERT JUMPDEST PUSH1 0x0 PUSH1 0x2 DUP3 DIV SWAP1 POP PUSH1 0x1 DUP3 AND DUP1 PUSH2 0x979 JUMPI PUSH1 0x7F DUP3 AND SWAP2 POP JUMPDEST PUSH1 0x20 DUP3 LT DUP2 SUB PUSH2 0x98C JUMPI PUSH2 0x98B PUSH2 0x932 JUMP JUMPDEST JUMPDEST POP SWAP2 SWAP1 POP JUMP JUMPDEST PUSH32 0x436F6E7472616374206578706972656400000000000000000000000000000000 PUSH1 0x0 DUP3 ADD MSTORE POP JUMP JUMPDEST PUSH1 0x0 PUSH2 0x9C8 PUSH1 0x10 DUP4 PUSH2 0x57A JUMP JUMPDEST SWAP2 POP PUSH2 0x9D3 DUP3 PUSH2 0x992 JUMP JUMPDEST PUSH1 0x20 DUP3 ADD SWAP1 POP SWAP2 SWAP1 POP JUMP JUMPDEST PUSH1 0x0 PUSH1 0x20 DUP3 ADD SWAP1 POP DUP2 DUP2 SUB PUSH1 0x0 DUP4 ADD MSTORE PUSH2 0x9F7 DUP2 PUSH2 0x9BB JUMP JUMPDEST SWAP1 POP SWAP2 SWAP1 POP JUMP JUMPDEST PUSH1 0x0 DUP2 SWAP1 POP SWAP3 SWAP2 POP POP JUMP JUMPDEST PUSH1 0x0 PUSH2 0xA14 DUP3 PUSH2 0x56F JUMP JUMPDEST PUSH2 0xA1E DUP2 DUP6 PUSH2 0x9FE JUMP JUMPDEST SWAP4 POP PUSH2 0xA2E DUP2 DUP6 PUSH1 0x20 DUP7 ADD PUSH2 0x58B JUMP JUMPDEST DUP1 DUP5 ADD SWAP2 POP POP SWAP3 SWAP2 POP POP JUMP JUMPDEST PUSH1 0x0 PUSH2 0xA46 DUP3 DUP5 PUSH2 0xA09 JUMP JUMPDEST SWAP2 POP DUP2 SWAP1 POP SWAP3 SWAP2 POP POP JUMP JUMPDEST PUSH32 0x436572746966696361746520696420646F6573206E6F74206578697374000000 PUSH1 0x0 DUP3 ADD MSTORE POP JUMP JUMPDEST PUSH1 0x0 PUSH2 0xA87 PUSH1 0x1D DUP4 PUSH2 0x57A JUMP JUMPDEST SWAP2 POP PUSH2 0xA92 DUP3 PUSH2 0xA51 JUMP JUMPDEST PUSH1 0x20 DUP3 ADD SWAP1 POP SWAP2 SWAP1 POP JUMP JUMPDEST PUSH1 0x0 PUSH1 0x20 DUP3 ADD SWAP1 POP DUP2 DUP2 SUB PUSH1 0x0 DUP4 ADD MSTORE PUSH2 0xAB6 DUP2 PUSH2 0xA7A JUMP JUMPDEST SWAP1 POP SWAP2 SWAP1 POP JUMP JUMPDEST PUSH32 0x436572746966696361746520696420616C726561647920657869737473000000 PUSH1 0x0 DUP3 ADD MSTORE POP JUMP JUMPDEST PUSH1 0x0 PUSH2 0xAF3 PUSH1 0x1D DUP4 PUSH2 0x57A JUMP JUMPDEST SWAP2 POP PUSH2 0xAFE DUP3 PUSH2 0xABD JUMP JUMPDEST PUSH1 0x20 DUP3 ADD SWAP1 POP SWAP2 SWAP1 POP JUMP JUMPDEST PUSH1 0x0 PUSH1 0x20 DUP3 ADD SWAP1 POP DUP2 DUP2 SUB PUSH1 0x0 DUP4 ADD MSTORE PUSH2 0xB22 DUP2 PUSH2 0xAE6 JUMP JUMPDEST SWAP1 POP SWAP2 SWAP1 POP JUMP INVALID LOG2 PUSH5 0x6970667358 0x22 SLT KECCAK256 MUL SWAP12 SWAP10 CREATE JUMPDEST LT SLOAD DUP8 PUSH18 0xE184F38DF876BC45F50F738E331AB3426EC8 0xFC CREATE PUSH14 0xC97464736F6C6343000814003300 "},"methodIdentifiers":{"createCertificate(string,bytes32)":"eb537e91","expireContract()":"0f73d0b4","isContractExpired()":"ea8b5ca3","manager()":"481c6a75","orgAddress()":"797ea25d","orgId()":"1730bdfe","orgName()":"1386dc2d","validateCertificate(string,bytes32)":"81dbb5e1"}}}}}