{"contracts/CertificationValidationContract.sol":{"CertificationValidationContract":{"abi":[{"inputs":[{"internalType":"string[]","name":"_certificates_hash","type":"string[]"}],"name":"addCertificateHash","outputs":[],"stateMutability":"nonpayable","type":"function"},{"inputs":[{"internalType":"uint256","name":"","type":"uint256"}],"name":"certificates_hash","outputs":[{"internalType":"string","name":"","type":"string"}],"stateMutability":"view","type":"function"},{"inputs":[{"internalType":"string","name":"_certificate_hash","type":"string"}],"name":"checkElement","outputs":[{"internalType":"bool","name":"","type":"bool"}],"stateMutability":"view","type":"function"},{"inputs":[],"name":"getContractLength","outputs":[{"internalType":"uint256","name":"","type":"uint256"}],"stateMutability":"view","type":"function"}],"evm":{"bytecode":{"linkReferences":{},"object":"608060405234801561001057600080fd5b50610b9f806100206000396000f3fe608060405234801561001057600080fd5b506004361061004c5760003560e01c80638e6c8ce3146100515780639906c86a1461006d578063a5ed06711461009d578063ed851877146100cd575b600080fd5b61006b60048036038101906100669190610502565b6100eb565b005b61008760048036038101906100829190610581565b61015d565b604051610094919061062d565b60405180910390f35b6100b760048036038101906100b2919061064f565b610209565b6040516100c491906106b3565b60405180910390f35b6100d56102b6565b6040516100e291906106dd565b60405180910390f35b60005b815181101561015957600082828151811061010c5761010b6106f8565b5b60200260200101519080600181540180825580915050600190039060005260206000200160009091909190915090816101459190610933565b50808061015190610a34565b9150506100ee565b5050565b6000818154811061016d57600080fd5b90600052602060002001600091509050805461018890610756565b80601f01602080910402602001604051908101604052809291908181526020018280546101b490610756565b80156102015780601f106101d657610100808354040283529160200191610201565b820191906000526020600020905b8154815290600101906020018083116101e457829003601f168201915b505050505081565b600080600090505b6000805490508110156102ab578260405160200161022f9190610ab8565b6040516020818303038152906040528051906020012060008281548110610259576102586106f8565b5b906000526020600020016040516020016102739190610b52565b60405160208183030381529060405280519060200120036102985760019150506102b1565b80806102a390610a34565b915050610211565b50600090505b919050565b60008080549050905090565b6000604051905090565b600080fd5b600080fd5b600080fd5b6000601f19601f8301169050919050565b7f4e487b7100000000000000000000000000000000000000000000000000000000600052604160045260246000fd5b610324826102db565b810181811067ffffffffffffffff82111715610343576103426102ec565b5b80604052505050565b60006103566102c2565b9050610362828261031b565b919050565b600067ffffffffffffffff821115610382576103816102ec565b5b602082029050602081019050919050565b600080fd5b600080fd5b600067ffffffffffffffff8211156103b8576103b76102ec565b5b6103c1826102db565b9050602081019050919050565b82818337600083830152505050565b60006103f06103eb8461039d565b61034c565b90508281526020810184848401111561040c5761040b610398565b5b6104178482856103ce565b509392505050565b600082601f830112610434576104336102d6565b5b81356104448482602086016103dd565b91505092915050565b600061046061045b84610367565b61034c565b9050808382526020820190506020840283018581111561048357610482610393565b5b835b818110156104ca57803567ffffffffffffffff8111156104a8576104a76102d6565b5b8086016104b5898261041f565b85526020850194505050602081019050610485565b5050509392505050565b600082601f8301126104e9576104e86102d6565b5b81356104f984826020860161044d565b91505092915050565b600060208284031215610518576105176102cc565b5b600082013567ffffffffffffffff811115610536576105356102d1565b5b610542848285016104d4565b91505092915050565b6000819050919050565b61055e8161054b565b811461056957600080fd5b50565b60008135905061057b81610555565b92915050565b600060208284031215610597576105966102cc565b5b60006105a58482850161056c565b91505092915050565b600081519050919050565b600082825260208201905092915050565b60005b838110156105e85780820151818401526020810190506105cd565b60008484015250505050565b60006105ff826105ae565b61060981856105b9565b93506106198185602086016105ca565b610622816102db565b840191505092915050565b6000602082019050818103600083015261064781846105f4565b905092915050565b600060208284031215610665576106646102cc565b5b600082013567ffffffffffffffff811115610683576106826102d1565b5b61068f8482850161041f565b91505092915050565b60008115159050919050565b6106ad81610698565b82525050565b60006020820190506106c860008301846106a4565b92915050565b6106d78161054b565b82525050565b60006020820190506106f260008301846106ce565b92915050565b7f4e487b7100000000000000000000000000000000000000000000000000000000600052603260045260246000fd5b7f4e487b7100000000000000000000000000000000000000000000000000000000600052602260045260246000fd5b6000600282049050600182168061076e57607f821691505b60208210810361078157610780610727565b5b50919050565b60008190508160005260206000209050919050565b60006020601f8301049050919050565b600082821b905092915050565b6000600883026107e97fffffffffffffffffffffffffffffffffffffffffffffffffffffffffffffffff826107ac565b6107f386836107ac565b95508019841693508086168417925050509392505050565b6000819050919050565b600061083061082b6108268461054b565b61080b565b61054b565b9050919050565b6000819050919050565b61084a83610815565b61085e61085682610837565b8484546107b9565b825550505050565b600090565b610873610866565b61087e818484610841565b505050565b5b818110156108a25761089760008261086b565b600181019050610884565b5050565b601f8211156108e7576108b881610787565b6108c18461079c565b810160208510156108d0578190505b6108e46108dc8561079c565b830182610883565b50505b505050565b600082821c905092915050565b600061090a600019846008026108ec565b1980831691505092915050565b600061092383836108f9565b9150826002028217905092915050565b61093c826105ae565b67ffffffffffffffff811115610955576109546102ec565b5b61095f8254610756565b61096a8282856108a6565b600060209050601f83116001811461099d576000841561098b578287015190505b6109958582610917565b8655506109fd565b601f1984166109ab86610787565b60005b828110156109d3578489015182556001820191506020850194506020810190506109ae565b868310156109f057848901516109ec601f8916826108f9565b8355505b6001600288020188555050505b505050505050565b7f4e487b7100000000000000000000000000000000000000000000000000000000600052601160045260246000fd5b6000610a3f8261054b565b91507fffffffffffffffffffffffffffffffffffffffffffffffffffffffffffffffff8203610a7157610a70610a05565b5b600182019050919050565b600081905092915050565b6000610a92826105ae565b610a9c8185610a7c565b9350610aac8185602086016105ca565b80840191505092915050565b6000610ac48284610a87565b915081905092915050565b60008154610adc81610756565b610ae68186610a7c565b94506001821660008114610b015760018114610b1657610b49565b60ff1983168652811515820286019350610b49565b610b1f85610787565b60005b83811015610b4157815481890152600182019150602081019050610b22565b838801955050505b50505092915050565b6000610b5e8284610acf565b91508190509291505056fea264697066735822122052f0db2d55207d0d9eaa78c2a28fa0c73a8e8aa272e8cdbd6ad38e1f066c721064736f6c63430008140033","opcodes":"PUSH1 0x80 PUSH1 0x40 MSTORE CALLVALUE DUP1 ISZERO PUSH2 0x10 JUMPI PUSH1 0x0 DUP1 REVERT JUMPDEST POP PUSH2 0xB9F DUP1 PUSH2 0x20 PUSH1 0x0 CODECOPY PUSH1 0x0 RETURN INVALID PUSH1 0x80 PUSH1 0x40 MSTORE CALLVALUE DUP1 ISZERO PUSH2 0x10 JUMPI PUSH1 0x0 DUP1 REVERT JUMPDEST POP PUSH1 0x4 CALLDATASIZE LT PUSH2 0x4C JUMPI PUSH1 0x0 CALLDATALOAD PUSH1 0xE0 SHR DUP1 PUSH4 0x8E6C8CE3 EQ PUSH2 0x51 JUMPI DUP1 PUSH4 0x9906C86A EQ PUSH2 0x6D JUMPI DUP1 PUSH4 0xA5ED0671 EQ PUSH2 0x9D JUMPI DUP1 PUSH4 0xED851877 EQ PUSH2 0xCD JUMPI JUMPDEST PUSH1 0x0 DUP1 REVERT JUMPDEST PUSH2 0x6B PUSH1 0x4 DUP1 CALLDATASIZE SUB DUP2 ADD SWAP1 PUSH2 0x66 SWAP2 SWAP1 PUSH2 0x502 JUMP JUMPDEST PUSH2 0xEB JUMP JUMPDEST STOP JUMPDEST PUSH2 0x87 PUSH1 0x4 DUP1 CALLDATASIZE SUB DUP2 ADD SWAP1 PUSH2 0x82 SWAP2 SWAP1 PUSH2 0x581 JUMP JUMPDEST PUSH2 0x15D JUMP JUMPDEST PUSH1 0x40 MLOAD PUSH2 0x94 SWAP2 SWAP1 PUSH2 0x62D JUMP JUMPDEST PUSH1 0x40 MLOAD DUP1 SWAP2 SUB SWAP1 RETURN JUMPDEST PUSH2 0xB7 PUSH1 0x4 DUP1 CALLDATASIZE SUB DUP2 ADD SWAP1 PUSH2 0xB2 SWAP2 SWAP1 PUSH2 0x64F JUMP JUMPDEST PUSH2 0x209 JUMP JUMPDEST PUSH1 0x40 MLOAD PUSH2 0xC4 SWAP2 SWAP1 PUSH2 0x6B3 JUMP JUMPDEST PUSH1 0x40 MLOAD DUP1 SWAP2 SUB SWAP1 RETURN JUMPDEST PUSH2 0xD5 PUSH2 0x2B6 JUMP JUMPDEST PUSH1 0x40 MLOAD PUSH2 0xE2 SWAP2 SWAP1 PUSH2 0x6DD JUMP JUMPDEST PUSH1 0x40 MLOAD DUP1 SWAP2 SUB SWAP1 RETURN JUMPDEST PUSH1 0x0 JUMPDEST DUP2 MLOAD DUP2 LT ISZERO PUSH2 0x159 JUMPI PUSH1 0x0 DUP3 DUP3 DUP2 MLOAD DUP2 LT PUSH2 0x10C JUMPI PUSH2 0x10B PUSH2 0x6F8 JUMP JUMPDEST JUMPDEST PUSH1 0x20 MUL PUSH1 0x20 ADD ADD MLOAD SWAP1 DUP1 PUSH1 0x1 DUP2 SLOAD ADD DUP1 DUP3 SSTORE DUP1 SWAP2 POP POP PUSH1 0x1 SWAP1 SUB SWAP1 PUSH1 0x0 MSTORE PUSH1 0x20 PUSH1 0x0 KECCAK256 ADD PUSH1 0x0 SWAP1 SWAP2 SWAP1 SWAP2 SWAP1 SWAP2 POP SWAP1 DUP2 PUSH2 0x145 SWAP2 SWAP1 PUSH2 0x933 JUMP JUMPDEST POP DUP1 DUP1 PUSH2 0x151 SWAP1 PUSH2 0xA34 JUMP JUMPDEST SWAP2 POP POP PUSH2 0xEE JUMP JUMPDEST POP POP JUMP JUMPDEST PUSH1 0x0 DUP2 DUP2 SLOAD DUP2 LT PUSH2 0x16D JUMPI PUSH1 0x0 DUP1 REVERT JUMPDEST SWAP1 PUSH1 0x0 MSTORE PUSH1 0x20 PUSH1 0x0 KECCAK256 ADD PUSH1 0x0 SWAP2 POP SWAP1 POP DUP1 SLOAD PUSH2 0x188 SWAP1 PUSH2 0x756 JUMP JUMPDEST DUP1 PUSH1 0x1F ADD PUSH1 0x20 DUP1 SWAP2 DIV MUL PUSH1 0x20 ADD PUSH1 0x40 MLOAD SWAP1 DUP2 ADD PUSH1 0x40 MSTORE DUP1 SWAP3 SWAP2 SWAP1 DUP2 DUP2 MSTORE PUSH1 0x20 ADD DUP3 DUP1 SLOAD PUSH2 0x1B4 SWAP1 PUSH2 0x756 JUMP JUMPDEST DUP1 ISZERO PUSH2 0x201 JUMPI DUP1 PUSH1 0x1F LT PUSH2 0x1D6 JUMPI PUSH2 0x100 DUP1 DUP4 SLOAD DIV MUL DUP4 MSTORE SWAP2 PUSH1 0x20 ADD SWAP2 PUSH2 0x201 JUMP JUMPDEST DUP3 ADD SWAP2 SWAP1 PUSH1 0x0 MSTORE PUSH1 0x20 PUSH1 0x0 KECCAK256 SWAP1 JUMPDEST DUP2 SLOAD DUP2 MSTORE SWAP1 PUSH1 0x1 ADD SWAP1 PUSH1 0x20 ADD DUP1 DUP4 GT PUSH2 0x1E4 JUMPI DUP3 SWAP1 SUB PUSH1 0x1F AND DUP3 ADD SWAP2 JUMPDEST POP POP POP POP POP DUP2 JUMP JUMPDEST PUSH1 0x0 DUP1 PUSH1 0x0 SWAP1 POP JUMPDEST PUSH1 0x0 DUP1 SLOAD SWAP1 POP DUP2 LT ISZERO PUSH2 0x2AB JUMPI DUP3 PUSH1 0x40 MLOAD PUSH1 0x20 ADD PUSH2 0x22F SWAP2 SWAP1 PUSH2 0xAB8 JUMP JUMPDEST PUSH1 0x40 MLOAD PUSH1 0x20 DUP2 DUP4 SUB SUB DUP2 MSTORE SWAP1 PUSH1 0x40 MSTORE DUP1 MLOAD SWAP1 PUSH1 0x20 ADD KECCAK256 PUSH1 0x0 DUP3 DUP2 SLOAD DUP2 LT PUSH2 0x259 JUMPI PUSH2 0x258 PUSH2 0x6F8 JUMP JUMPDEST JUMPDEST SWAP1 PUSH1 0x0 MSTORE PUSH1 0x20 PUSH1 0x0 KECCAK256 ADD PUSH1 0x40 MLOAD PUSH1 0x20 ADD PUSH2 0x273 SWAP2 SWAP1 PUSH2 0xB52 JUMP JUMPDEST PUSH1 0x40 MLOAD PUSH1 0x20 DUP2 DUP4 SUB SUB DUP2 MSTORE SWAP1 PUSH1 0x40 MSTORE DUP1 MLOAD SWAP1 PUSH1 0x20 ADD KECCAK256 SUB PUSH2 0x298 JUMPI PUSH1 0x1 SWAP2 POP POP PUSH2 0x2B1 JUMP JUMPDEST DUP1 DUP1 PUSH2 0x2A3 SWAP1 PUSH2 0xA34 JUMP JUMPDEST SWAP2 POP POP PUSH2 0x211 JUMP JUMPDEST POP PUSH1 0x0 SWAP1 POP JUMPDEST SWAP2 SWAP1 POP JUMP JUMPDEST PUSH1 0x0 DUP1 DUP1 SLOAD SWAP1 POP SWAP1 POP SWAP1 JUMP JUMPDEST PUSH1 0x0 PUSH1 0x40 MLOAD SWAP1 POP SWAP1 JUMP JUMPDEST PUSH1 0x0 DUP1 REVERT JUMPDEST PUSH1 0x0 DUP1 REVERT JUMPDEST PUSH1 0x0 DUP1 REVERT JUMPDEST PUSH1 0x0 PUSH1 0x1F NOT PUSH1 0x1F DUP4 ADD AND SWAP1 POP SWAP2 SWAP1 POP JUMP JUMPDEST PUSH32 0x4E487B7100000000000000000000000000000000000000000000000000000000 PUSH1 0x0 MSTORE PUSH1 0x41 PUSH1 0x4 MSTORE PUSH1 0x24 PUSH1 0x0 REVERT JUMPDEST PUSH2 0x324 DUP3 PUSH2 0x2DB JUMP JUMPDEST DUP2 ADD DUP2 DUP2 LT PUSH8 0xFFFFFFFFFFFFFFFF DUP3 GT OR ISZERO PUSH2 0x343 JUMPI PUSH2 0x342 PUSH2 0x2EC JUMP JUMPDEST JUMPDEST DUP1 PUSH1 0x40 MSTORE POP POP POP JUMP JUMPDEST PUSH1 0x0 PUSH2 0x356 PUSH2 0x2C2 JUMP JUMPDEST SWAP1 POP PUSH2 0x362 DUP3 DUP3 PUSH2 0x31B JUMP JUMPDEST SWAP2 SWAP1 POP JUMP JUMPDEST PUSH1 0x0 PUSH8 0xFFFFFFFFFFFFFFFF DUP3 GT ISZERO PUSH2 0x382 JUMPI PUSH2 0x381 PUSH2 0x2EC JUMP JUMPDEST JUMPDEST PUSH1 0x20 DUP3 MUL SWAP1 POP PUSH1 0x20 DUP2 ADD SWAP1 POP SWAP2 SWAP1 POP JUMP JUMPDEST PUSH1 0x0 DUP1 REVERT JUMPDEST PUSH1 0x0 DUP1 REVERT JUMPDEST PUSH1 0x0 PUSH8 0xFFFFFFFFFFFFFFFF DUP3 GT ISZERO PUSH2 0x3B8 JUMPI PUSH2 0x3B7 PUSH2 0x2EC JUMP JUMPDEST JUMPDEST PUSH2 0x3C1 DUP3 PUSH2 0x2DB JUMP JUMPDEST SWAP1 POP PUSH1 0x20 DUP2 ADD SWAP1 POP SWAP2 SWAP1 POP JUMP JUMPDEST DUP3 DUP2 DUP4 CALLDATACOPY PUSH1 0x0 DUP4 DUP4 ADD MSTORE POP POP POP JUMP JUMPDEST PUSH1 0x0 PUSH2 0x3F0 PUSH2 0x3EB DUP5 PUSH2 0x39D JUMP JUMPDEST PUSH2 0x34C JUMP JUMPDEST SWAP1 POP DUP3 DUP2 MSTORE PUSH1 0x20 DUP2 ADD DUP5 DUP5 DUP5 ADD GT ISZERO PUSH2 0x40C JUMPI PUSH2 0x40B PUSH2 0x398 JUMP JUMPDEST JUMPDEST PUSH2 0x417 DUP5 DUP3 DUP6 PUSH2 0x3CE JUMP JUMPDEST POP SWAP4 SWAP3 POP POP POP JUMP JUMPDEST PUSH1 0x0 DUP3 PUSH1 0x1F DUP4 ADD SLT PUSH2 0x434 JUMPI PUSH2 0x433 PUSH2 0x2D6 JUMP JUMPDEST JUMPDEST DUP2 CALLDATALOAD PUSH2 0x444 DUP5 DUP3 PUSH1 0x20 DUP7 ADD PUSH2 0x3DD JUMP JUMPDEST SWAP2 POP POP SWAP3 SWAP2 POP POP JUMP JUMPDEST PUSH1 0x0 PUSH2 0x460 PUSH2 0x45B DUP5 PUSH2 0x367 JUMP JUMPDEST PUSH2 0x34C JUMP JUMPDEST SWAP1 POP DUP1 DUP4 DUP3 MSTORE PUSH1 0x20 DUP3 ADD SWAP1 POP PUSH1 0x20 DUP5 MUL DUP4 ADD DUP6 DUP2 GT ISZERO PUSH2 0x483 JUMPI PUSH2 0x482 PUSH2 0x393 JUMP JUMPDEST JUMPDEST DUP4 JUMPDEST DUP2 DUP2 LT ISZERO PUSH2 0x4CA JUMPI DUP1 CALLDATALOAD PUSH8 0xFFFFFFFFFFFFFFFF DUP2 GT ISZERO PUSH2 0x4A8 JUMPI PUSH2 0x4A7 PUSH2 0x2D6 JUMP JUMPDEST JUMPDEST DUP1 DUP7 ADD PUSH2 0x4B5 DUP10 DUP3 PUSH2 0x41F JUMP JUMPDEST DUP6 MSTORE PUSH1 0x20 DUP6 ADD SWAP5 POP POP POP PUSH1 0x20 DUP2 ADD SWAP1 POP PUSH2 0x485 JUMP JUMPDEST POP POP POP SWAP4 SWAP3 POP POP POP JUMP JUMPDEST PUSH1 0x0 DUP3 PUSH1 0x1F DUP4 ADD SLT PUSH2 0x4E9 JUMPI PUSH2 0x4E8 PUSH2 0x2D6 JUMP JUMPDEST JUMPDEST DUP2 CALLDATALOAD PUSH2 0x4F9 DUP5 DUP3 PUSH1 0x20 DUP7 ADD PUSH2 0x44D JUMP JUMPDEST SWAP2 POP POP SWAP3 SWAP2 POP POP JUMP JUMPDEST PUSH1 0x0 PUSH1 0x20 DUP3 DUP5 SUB SLT ISZERO PUSH2 0x518 JUMPI PUSH2 0x517 PUSH2 0x2CC JUMP JUMPDEST JUMPDEST PUSH1 0x0 DUP3 ADD CALLDATALOAD PUSH8 0xFFFFFFFFFFFFFFFF DUP2 GT ISZERO PUSH2 0x536 JUMPI PUSH2 0x535 PUSH2 0x2D1 JUMP JUMPDEST JUMPDEST PUSH2 0x542 DUP5 DUP3 DUP6 ADD PUSH2 0x4D4 JUMP JUMPDEST SWAP2 POP POP SWAP3 SWAP2 POP POP JUMP JUMPDEST PUSH1 0x0 DUP2 SWAP1 POP SWAP2 SWAP1 POP JUMP JUMPDEST PUSH2 0x55E DUP2 PUSH2 0x54B JUMP JUMPDEST DUP2 EQ PUSH2 0x569 JUMPI PUSH1 0x0 DUP1 REVERT JUMPDEST POP JUMP JUMPDEST PUSH1 0x0 DUP2 CALLDATALOAD SWAP1 POP PUSH2 0x57B DUP2 PUSH2 0x555 JUMP JUMPDEST SWAP3 SWAP2 POP POP JUMP JUMPDEST PUSH1 0x0 PUSH1 0x20 DUP3 DUP5 SUB SLT ISZERO PUSH2 0x597 JUMPI PUSH2 0x596 PUSH2 0x2CC JUMP JUMPDEST JUMPDEST PUSH1 0x0 PUSH2 0x5A5 DUP5 DUP3 DUP6 ADD PUSH2 0x56C JUMP JUMPDEST SWAP2 POP POP SWAP3 SWAP2 POP POP JUMP JUMPDEST PUSH1 0x0 DUP2 MLOAD SWAP1 POP SWAP2 SWAP1 POP JUMP JUMPDEST PUSH1 0x0 DUP3 DUP3 MSTORE PUSH1 0x20 DUP3 ADD SWAP1 POP SWAP3 SWAP2 POP POP JUMP JUMPDEST PUSH1 0x0 JUMPDEST DUP4 DUP2 LT ISZERO PUSH2 0x5E8 JUMPI DUP1 DUP3 ADD MLOAD DUP2 DUP5 ADD MSTORE PUSH1 0x20 DUP2 ADD SWAP1 POP PUSH2 0x5CD JUMP JUMPDEST PUSH1 0x0 DUP5 DUP5 ADD MSTORE POP POP POP POP JUMP JUMPDEST PUSH1 0x0 PUSH2 0x5FF DUP3 PUSH2 0x5AE JUMP JUMPDEST PUSH2 0x609 DUP2 DUP6 PUSH2 0x5B9 JUMP JUMPDEST SWAP4 POP PUSH2 0x619 DUP2 DUP6 PUSH1 0x20 DUP7 ADD PUSH2 0x5CA JUMP JUMPDEST PUSH2 0x622 DUP2 PUSH2 0x2DB JUMP JUMPDEST DUP5 ADD SWAP2 POP POP SWAP3 SWAP2 POP POP JUMP JUMPDEST PUSH1 0x0 PUSH1 0x20 DUP3 ADD SWAP1 POP DUP2 DUP2 SUB PUSH1 0x0 DUP4 ADD MSTORE PUSH2 0x647 DUP2 DUP5 PUSH2 0x5F4 JUMP JUMPDEST SWAP1 POP SWAP3 SWAP2 POP POP JUMP JUMPDEST PUSH1 0x0 PUSH1 0x20 DUP3 DUP5 SUB SLT ISZERO PUSH2 0x665 JUMPI PUSH2 0x664 PUSH2 0x2CC JUMP JUMPDEST JUMPDEST PUSH1 0x0 DUP3 ADD CALLDATALOAD PUSH8 0xFFFFFFFFFFFFFFFF DUP2 GT ISZERO PUSH2 0x683 JUMPI PUSH2 0x682 PUSH2 0x2D1 JUMP JUMPDEST JUMPDEST PUSH2 0x68F DUP5 DUP3 DUP6 ADD PUSH2 0x41F JUMP JUMPDEST SWAP2 POP POP SWAP3 SWAP2 POP POP JUMP JUMPDEST PUSH1 0x0 DUP2 ISZERO ISZERO SWAP1 POP SWAP2 SWAP1 POP JUMP JUMPDEST PUSH2 0x6AD DUP2 PUSH2 0x698 JUMP JUMPDEST DUP3 MSTORE POP POP JUMP JUMPDEST PUSH1 0x0 PUSH1 0x20 DUP3 ADD SWAP1 POP PUSH2 0x6C8 PUSH1 0x0 DUP4 ADD DUP5 PUSH2 0x6A4 JUMP JUMPDEST SWAP3 SWAP2 POP POP JUMP JUMPDEST PUSH2 0x6D7 DUP2 PUSH2 0x54B JUMP JUMPDEST DUP3 MSTORE POP POP JUMP JUMPDEST PUSH1 0x0 PUSH1 0x20 DUP3 ADD SWAP1 POP PUSH2 0x6F2 PUSH1 0x0 DUP4 ADD DUP5 PUSH2 0x6CE JUMP JUMPDEST SWAP3 SWAP2 POP POP JUMP JUMPDEST PUSH32 0x4E487B7100000000000000000000000000000000000000000000000000000000 PUSH1 0x0 MSTORE PUSH1 0x32 PUSH1 0x4 MSTORE PUSH1 0x24 PUSH1 0x0 REVERT JUMPDEST PUSH32 0x4E487B7100000000000000000000000000000000000000000000000000000000 PUSH1 0x0 MSTORE PUSH1 0x22 PUSH1 0x4 MSTORE PUSH1 0x24 PUSH1 0x0 REVERT JUMPDEST PUSH1 0x0 PUSH1 0x2 DUP3 DIV SWAP1 POP PUSH1 0x1 DUP3 AND DUP1 PUSH2 0x76E JUMPI PUSH1 0x7F DUP3 AND SWAP2 POP JUMPDEST PUSH1 0x20 DUP3 LT DUP2 SUB PUSH2 0x781 JUMPI PUSH2 0x780 PUSH2 0x727 JUMP JUMPDEST JUMPDEST POP SWAP2 SWAP1 POP JUMP JUMPDEST PUSH1 0x0 DUP2 SWAP1 POP DUP2 PUSH1 0x0 MSTORE PUSH1 0x20 PUSH1 0x0 KECCAK256 SWAP1 POP SWAP2 SWAP1 POP JUMP JUMPDEST PUSH1 0x0 PUSH1 0x20 PUSH1 0x1F DUP4 ADD DIV SWAP1 POP SWAP2 SWAP1 POP JUMP JUMPDEST PUSH1 0x0 DUP3 DUP3 SHL SWAP1 POP SWAP3 SWAP2 POP POP JUMP JUMPDEST PUSH1 0x0 PUSH1 0x8 DUP4 MUL PUSH2 0x7E9 PUSH32 0xFFFFFFFFFFFFFFFFFFFFFFFFFFFFFFFFFFFFFFFFFFFFFFFFFFFFFFFFFFFFFFFF DUP3 PUSH2 0x7AC JUMP JUMPDEST PUSH2 0x7F3 DUP7 DUP4 PUSH2 0x7AC JUMP JUMPDEST SWAP6 POP DUP1 NOT DUP5 AND SWAP4 POP DUP1 DUP7 AND DUP5 OR SWAP3 POP POP POP SWAP4 SWAP3 POP POP POP JUMP JUMPDEST PUSH1 0x0 DUP2 SWAP1 POP SWAP2 SWAP1 POP JUMP JUMPDEST PUSH1 0x0 PUSH2 0x830 PUSH2 0x82B PUSH2 0x826 DUP5 PUSH2 0x54B JUMP JUMPDEST PUSH2 0x80B JUMP JUMPDEST PUSH2 0x54B JUMP JUMPDEST SWAP1 POP SWAP2 SWAP1 POP JUMP JUMPDEST PUSH1 0x0 DUP2 SWAP1 POP SWAP2 SWAP1 POP JUMP JUMPDEST PUSH2 0x84A DUP4 PUSH2 0x815 JUMP JUMPDEST PUSH2 0x85E PUSH2 0x856 DUP3 PUSH2 0x837 JUMP JUMPDEST DUP5 DUP5 SLOAD PUSH2 0x7B9 JUMP JUMPDEST DUP3 SSTORE POP POP POP POP JUMP JUMPDEST PUSH1 0x0 SWAP1 JUMP JUMPDEST PUSH2 0x873 PUSH2 0x866 JUMP JUMPDEST PUSH2 0x87E DUP2 DUP5 DUP5 PUSH2 0x841 JUMP JUMPDEST POP POP POP JUMP JUMPDEST JUMPDEST DUP2 DUP2 LT ISZERO PUSH2 0x8A2 JUMPI PUSH2 0x897 PUSH1 0x0 DUP3 PUSH2 0x86B JUMP JUMPDEST PUSH1 0x1 DUP2 ADD SWAP1 POP PUSH2 0x884 JUMP JUMPDEST POP POP JUMP JUMPDEST PUSH1 0x1F DUP3 GT ISZERO PUSH2 0x8E7 JUMPI PUSH2 0x8B8 DUP2 PUSH2 0x787 JUMP JUMPDEST PUSH2 0x8C1 DUP5 PUSH2 0x79C JUMP JUMPDEST DUP2 ADD PUSH1 0x20 DUP6 LT ISZERO PUSH2 0x8D0 JUMPI DUP2 SWAP1 POP JUMPDEST PUSH2 0x8E4 PUSH2 0x8DC DUP6 PUSH2 0x79C JUMP JUMPDEST DUP4 ADD DUP3 PUSH2 0x883 JUMP JUMPDEST POP POP JUMPDEST POP POP POP JUMP JUMPDEST PUSH1 0x0 DUP3 DUP3 SHR SWAP1 POP SWAP3 SWAP2 POP POP JUMP JUMPDEST PUSH1 0x0 PUSH2 0x90A PUSH1 0x0 NOT DUP5 PUSH1 0x8 MUL PUSH2 0x8EC JUMP JUMPDEST NOT DUP1 DUP4 AND SWAP2 POP POP SWAP3 SWAP2 POP POP JUMP JUMPDEST PUSH1 0x0 PUSH2 0x923 DUP4 DUP4 PUSH2 0x8F9 JUMP JUMPDEST SWAP2 POP DUP3 PUSH1 0x2 MUL DUP3 OR SWAP1 POP SWAP3 SWAP2 POP POP JUMP JUMPDEST PUSH2 0x93C DUP3 PUSH2 0x5AE JUMP JUMPDEST PUSH8 0xFFFFFFFFFFFFFFFF DUP2 GT ISZERO PUSH2 0x955 JUMPI PUSH2 0x954 PUSH2 0x2EC JUMP JUMPDEST JUMPDEST PUSH2 0x95F DUP3 SLOAD PUSH2 0x756 JUMP JUMPDEST PUSH2 0x96A DUP3 DUP3 DUP6 PUSH2 0x8A6 JUMP JUMPDEST PUSH1 0x0 PUSH1 0x20 SWAP1 POP PUSH1 0x1F DUP4 GT PUSH1 0x1 DUP2 EQ PUSH2 0x99D JUMPI PUSH1 0x0 DUP5 ISZERO PUSH2 0x98B JUMPI DUP3 DUP8 ADD MLOAD SWAP1 POP JUMPDEST PUSH2 0x995 DUP6 DUP3 PUSH2 0x917 JUMP JUMPDEST DUP7 SSTORE POP PUSH2 0x9FD JUMP JUMPDEST PUSH1 0x1F NOT DUP5 AND PUSH2 0x9AB DUP7 PUSH2 0x787 JUMP JUMPDEST PUSH1 0x0 JUMPDEST DUP3 DUP2 LT ISZERO PUSH2 0x9D3 JUMPI DUP5 DUP10 ADD MLOAD DUP3 SSTORE PUSH1 0x1 DUP3 ADD SWAP2 POP PUSH1 0x20 DUP6 ADD SWAP5 POP PUSH1 0x20 DUP2 ADD SWAP1 POP PUSH2 0x9AE JUMP JUMPDEST DUP7 DUP4 LT ISZERO PUSH2 0x9F0 JUMPI DUP5 DUP10 ADD MLOAD PUSH2 0x9EC PUSH1 0x1F DUP10 AND DUP3 PUSH2 0x8F9 JUMP JUMPDEST DUP4 SSTORE POP JUMPDEST PUSH1 0x1 PUSH1 0x2 DUP9 MUL ADD DUP9 SSTORE POP POP POP JUMPDEST POP POP POP POP POP POP JUMP JUMPDEST PUSH32 0x4E487B7100000000000000000000000000000000000000000000000000000000 PUSH1 0x0 MSTORE PUSH1 0x11 PUSH1 0x4 MSTORE PUSH1 0x24 PUSH1 0x0 REVERT JUMPDEST PUSH1 0x0 PUSH2 0xA3F DUP3 PUSH2 0x54B JUMP JUMPDEST SWAP2 POP PUSH32 0xFFFFFFFFFFFFFFFFFFFFFFFFFFFFFFFFFFFFFFFFFFFFFFFFFFFFFFFFFFFFFFFF DUP3 SUB PUSH2 0xA71 JUMPI PUSH2 0xA70 PUSH2 0xA05 JUMP JUMPDEST JUMPDEST PUSH1 0x1 DUP3 ADD SWAP1 POP SWAP2 SWAP1 POP JUMP JUMPDEST PUSH1 0x0 DUP2 SWAP1 POP SWAP3 SWAP2 POP POP JUMP JUMPDEST PUSH1 0x0 PUSH2 0xA92 DUP3 PUSH2 0x5AE JUMP JUMPDEST PUSH2 0xA9C DUP2 DUP6 PUSH2 0xA7C JUMP JUMPDEST SWAP4 POP PUSH2 0xAAC DUP2 DUP6 PUSH1 0x20 DUP7 ADD PUSH2 0x5CA JUMP JUMPDEST DUP1 DUP5 ADD SWAP2 POP POP SWAP3 SWAP2 POP POP JUMP JUMPDEST PUSH1 0x0 PUSH2 0xAC4 DUP3 DUP5 PUSH2 0xA87 JUMP JUMPDEST SWAP2 POP DUP2 SWAP1 POP SWAP3 SWAP2 POP POP JUMP JUMPDEST PUSH1 0x0 DUP2 SLOAD PUSH2 0xADC DUP2 PUSH2 0x756 JUMP JUMPDEST PUSH2 0xAE6 DUP2 DUP7 PUSH2 0xA7C JUMP JUMPDEST SWAP5 POP PUSH1 0x1 DUP3 AND PUSH1 0x0 DUP2 EQ PUSH2 0xB01 JUMPI PUSH1 0x1 DUP2 EQ PUSH2 0xB16 JUMPI PUSH2 0xB49 JUMP JUMPDEST PUSH1 0xFF NOT DUP4 AND DUP7 MSTORE DUP2 ISZERO ISZERO DUP3 MUL DUP7 ADD SWAP4 POP PUSH2 0xB49 JUMP JUMPDEST PUSH2 0xB1F DUP6 PUSH2 0x787 JUMP JUMPDEST PUSH1 0x0 JUMPDEST DUP4 DUP2 LT ISZERO PUSH2 0xB41 JUMPI DUP2 SLOAD DUP2 DUP10 ADD MSTORE PUSH1 0x1 DUP3 ADD SWAP2 POP PUSH1 0x20 DUP2 ADD SWAP1 POP PUSH2 0xB22 JUMP JUMPDEST DUP4 DUP9 ADD SWAP6 POP POP POP JUMPDEST POP POP POP SWAP3 SWAP2 POP POP JUMP JUMPDEST PUSH1 0x0 PUSH2 0xB5E DUP3 DUP5 PUSH2 0xACF JUMP JUMPDEST SWAP2 POP DUP2 SWAP1 POP SWAP3 SWAP2 POP POP JUMP INVALID LOG2 PUSH5 0x6970667358 0x22 SLT KECCAK256 MSTORE CREATE 0xDB 0x2D SSTORE KECCAK256 PUSH30 0xD9EAA78C2A28FA0C73A8E8AA272E8CDBD6AD38E1F066C721064736F6C63 NUMBER STOP ADDMOD EQ STOP CALLER "},"methodIdentifiers":{"addCertificateHash(string[])":"8e6c8ce3","certificates_hash(uint256)":"9906c86a","checkElement(string)":"a5ed0671","getContractLength()":"ed851877"}}}}}