{
  "_format": "hh-sol-artifact-1",
  "contractName": "CertificationValidationContract",
  "sourceName": "contracts/CertificationValidationContract.sol",
  "abi": [
    {
      "inputs": [
        {
          "internalType": "string[]",
          "name": "_certificates_hash",
          "type": "string[]"
        }
      ],
      "name": "addCertificateHash",
      "outputs": [],
      "stateMutability": "nonpayable",
      "type": "function"
    },
    {
      "inputs": [
        {
          "internalType": "uint256",
          "name": "",
          "type": "uint256"
        }
      ],
      "name": "certificates_hash",
      "outputs": [
        {
          "internalType": "string",
          "name": "",
          "type": "string"
        }
      ],
      "stateMutability": "view",
      "type": "function"
    },
    {
      "inputs": [
        {
          "internalType": "string",
          "name": "_certificate_hash",
          "type": "string"
        }
      ],
      "name": "checkElement",
      "outputs": [
        {
          "internalType": "bool",
          "name": "",
          "type": "bool"
        }
      ],
      "stateMutability": "view",
      "type": "function"
    },
    {
      "inputs": [],
      "name": "getContractLength",
      "outputs": [
        {
          "internalType": "uint256",
          "name": "",
          "type": "uint256"
        }
      ],
      "stateMutability": "view",
      "type": "function"
    }
  ],
  "bytecode": "0x608060405234801561001057600080fd5b50610b9f806100206000396000f3fe608060405234801561001057600080fd5b506004361061004c5760003560e01c80638e6c8ce3146100515780639906c86a1461006d578063a5ed06711461009d578063ed851877146100cd575b600080fd5b61006b60048036038101906100669190610502565b6100eb565b005b61008760048036038101906100829190610581565b61015d565b604051610094919061062d565b60405180910390f35b6100b760048036038101906100b2919061064f565b610209565b6040516100c491906106b3565b60405180910390f35b6100d56102b6565b6040516100e291906106dd565b60405180910390f35b60005b815181101561015957600082828151811061010c5761010b6106f8565b5b60200260200101519080600181540180825580915050600190039060005260206000200160009091909190915090816101459190610933565b50808061015190610a34565b9150506100ee565b5050565b6000818154811061016d57600080fd5b90600052602060002001600091509050805461018890610756565b80601f01602080910402602001604051908101604052809291908181526020018280546101b490610756565b80156102015780601f106101d657610100808354040283529160200191610201565b820191906000526020600020905b8154815290600101906020018083116101e457829003601f168201915b505050505081565b600080600090505b6000805490508110156102ab578260405160200161022f9190610ab8565b6040516020818303038152906040528051906020012060008281548110610259576102586106f8565b5b906000526020600020016040516020016102739190610b52565b60405160208183030381529060405280519060200120036102985760019150506102b1565b80806102a390610a34565b915050610211565b50600090505b919050565b60008080549050905090565b6000604051905090565b600080fd5b600080fd5b600080fd5b6000601f19601f8301169050919050565b7f4e487b7100000000000000000000000000000000000000000000000000000000600052604160045260246000fd5b610324826102db565b810181811067ffffffffffffffff82111715610343576103426102ec565b5b80604052505050565b60006103566102c2565b9050610362828261031b565b919050565b600067ffffffffffffffff821115610382576103816102ec565b5b602082029050602081019050919050565b600080fd5b600080fd5b600067ffffffffffffffff8211156103b8576103b76102ec565b5b6103c1826102db565b9050602081019050919050565b82818337600083830152505050565b60006103f06103eb8461039d565b61034c565b90508281526020810184848401111561040c5761040b610398565b5b6104178482856103ce565b509392505050565b600082601f830112610434576104336102d6565b5b81356104448482602086016103dd565b91505092915050565b600061046061045b84610367565b61034c565b9050808382526020820190506020840283018581111561048357610482610393565b5b835b818110156104ca57803567ffffffffffffffff8111156104a8576104a76102d6565b5b8086016104b5898261041f565b85526020850194505050602081019050610485565b5050509392505050565b600082601f8301126104e9576104e86102d6565b5b81356104f984826020860161044d565b91505092915050565b600060208284031215610518576105176102cc565b5b600082013567ffffffffffffffff811115610536576105356102d1565b5b610542848285016104d4565b91505092915050565b6000819050919050565b61055e8161054b565b811461056957600080fd5b50565b60008135905061057b81610555565b92915050565b600060208284031215610597576105966102cc565b5b60006105a58482850161056c565b91505092915050565b600081519050919050565b600082825260208201905092915050565b60005b838110156105e85780820151818401526020810190506105cd565b60008484015250505050565b60006105ff826105ae565b61060981856105b9565b93506106198185602086016105ca565b610622816102db565b840191505092915050565b6000602082019050818103600083015261064781846105f4565b905092915050565b600060208284031215610665576106646102cc565b5b600082013567ffffffffffffffff811115610683576106826102d1565b5b61068f8482850161041f565b91505092915050565b60008115159050919050565b6106ad81610698565b82525050565b60006020820190506106c860008301846106a4565b92915050565b6106d78161054b565b82525050565b60006020820190506106f260008301846106ce565b92915050565b7f4e487b7100000000000000000000000000000000000000000000000000000000600052603260045260246000fd5b7f4e487b7100000000000000000000000000000000000000000000000000000000600052602260045260246000fd5b6000600282049050600182168061076e57607f821691505b60208210810361078157610780610727565b5b50919050565b60008190508160005260206000209050919050565b60006020601f8301049050919050565b600082821b905092915050565b6000600883026107e97fffffffffffffffffffffffffffffffffffffffffffffffffffffffffffffffff826107ac565b6107f386836107ac565b95508019841693508086168417925050509392505050565b6000819050919050565b600061083061082b6108268461054b565b61080b565b61054b565b9050919050565b6000819050919050565b61084a83610815565b61085e61085682610837565b8484546107b9565b825550505050565b600090565b610873610866565b61087e818484610841565b505050565b5b818110156108a25761089760008261086b565b600181019050610884565b5050565b601f8211156108e7576108b881610787565b6108c18461079c565b810160208510156108d0578190505b6108e46108dc8561079c565b830182610883565b50505b505050565b600082821c905092915050565b600061090a600019846008026108ec565b1980831691505092915050565b600061092383836108f9565b9150826002028217905092915050565b61093c826105ae565b67ffffffffffffffff811115610955576109546102ec565b5b61095f8254610756565b61096a8282856108a6565b600060209050601f83116001811461099d576000841561098b578287015190505b6109958582610917565b8655506109fd565b601f1984166109ab86610787565b60005b828110156109d3578489015182556001820191506020850194506020810190506109ae565b868310156109f057848901516109ec601f8916826108f9565b8355505b6001600288020188555050505b505050505050565b7f4e487b7100000000000000000000000000000000000000000000000000000000600052601160045260246000fd5b6000610a3f8261054b565b91507fffffffffffffffffffffffffffffffffffffffffffffffffffffffffffffffff8203610a7157610a70610a05565b5b600182019050919050565b600081905092915050565b6000610a92826105ae565b610a9c8185610a7c565b9350610aac8185602086016105ca565b80840191505092915050565b6000610ac48284610a87565b915081905092915050565b60008154610adc81610756565b610ae68186610a7c565b94506001821660008114610b015760018114610b1657610b49565b60ff1983168652811515820286019350610b49565b610b1f85610787565b60005b83811015610b4157815481890152600182019150602081019050610b22565b838801955050505b50505092915050565b6000610b5e8284610acf565b91508190509291505056fea264697066735822122052f0db2d55207d0d9eaa78c2a28fa0c73a8e8aa272e8cdbd6ad38e1f066c721064736f6c63430008140033",
  "linkReferences": {},
  "deployedLinkReferences": {}
}