{
  "_format": "hh-sol-artifact-1",
  "contractName": "OrganizationFactory",
  "sourceName": "contracts/CertificationValidationContract.sol",
  "abi": [
    {
      "anonymous": false,
      "inputs": [
        {
          "indexed": false,
          "internalType": "string",
          "name": "name",
          "type": "string"
        },
        {
          "indexed": false,
          "internalType": "address",
          "name": "contractAddress",
          "type": "address"
        },
        {
          "indexed": false,
          "internalType": "address",
          "name": "owner",
          "type": "address"
        }
      ],
      "name": "OrganizationCreated",
      "type": "event"
    },
    {
      "inputs": [
        {
          "internalType": "string",
          "name": "_email",
          "type": "string"
        }
      ],
      "name": "createOrganization",
      "outputs": [],
      "stateMutability": "nonpayable",
      "type": "function"
    },
    {
      "inputs": [
        {
          "internalType": "uint256",
          "name": "_index",
          "type": "uint256"
        }
      ],
      "name": "getOrganization",
      "outputs": [
        {
          "internalType": "string",
          "name": "",
          "type": "string"
        },
        {
          "internalType": "address",
          "name": "",
          "type": "address"
        }
      ],
      "stateMutability": "view",
      "type": "function"
    },
    {
      "inputs": [
        {
          "internalType": "string",
          "name": "_email",
          "type": "string"
        }
      ],
      "name": "getOrganizationByName",
      "outputs": [
        {
          "internalType": "address",
          "name": "",
          "type": "address"
        }
      ],
      "stateMutability": "view",
      "type": "function"
    },
    {
      "inputs": [
        {
          "internalType": "address",
          "name": "_owner",
          "type": "address"
        }
      ],
      "name": "getOrganizationByOwner",
      "outputs": [
        {
          "internalType": "address",
          "name": "",
          "type": "address"
        }
      ],
      "stateMutability": "view",
      "type": "function"
    },
    {
      "inputs": [],
      "name": "getOrganizationsCount",
      "outputs": [
        {
          "internalType": "uint256",
          "name": "",
          "type": "uint256"
        }
      ],
      "stateMutability": "view",
      "type": "function"
    },
    {
      "inputs": [
        {
          "internalType": "uint256",
          "name": "",
          "type": "uint256"
        }
      ],
      "name": "organizations",
      "outputs": [
        {
          "internalType": "string",
          "name": "email",
          "type": "string"
        },
        {
          "internalType": "address",
          "name": "contractAddress",
          "type": "address"
        }
      ],
      "stateMutability": "view",
      "type": "function"
    },
    {
      "inputs": [
        {
          "internalType": "address",
          "name": "",
          "type": "address"
        }
      ],
      "name": "ownerToContract",
      "outputs": [
        {
          "internalType": "address",
          "name": "",
          "type": "address"
        }
      ],
      "stateMutability": "view",
      "type": "function"
    }
  ],
  "bytecode": "0x608060405234801561001057600080fd5b50611c92806100206000396000f3fe608060405234801561001057600080fd5b506004361061007d5760003560e01c80636d62d3131161005b5780636d62d313146100ff5780637d70cbaf1461012f578063e0dfb5141461014d578063e792dd8a1461017d5761007d565b806341b0b808146100825780634526f690146100b25780636427acca146100e3575b600080fd5b61009c600480360381019061009791906107f4565b6101ae565b6040516100a99190610830565b60405180910390f35b6100cc60048036038101906100c79190610881565b6101e1565b6040516100da92919061093e565b60405180910390f35b6100fd60048036038101906100f89190610aa3565b610357565b005b61011960048036038101906101149190610aa3565b6104f6565b6040516101269190610830565b60405180910390f35b610137610624565b6040516101449190610afb565b60405180910390f35b610167600480360381019061016291906107f4565b610630565b6040516101749190610830565b60405180910390f35b61019760048036038101906101929190610881565b610699565b6040516101a592919061093e565b60405180910390f35b60016020528060005260406000206000915054906101000a900473ffffffffffffffffffffffffffffffffffffffff1681565b606060008080549050831061022b576040517f08c379a000000000000000000000000000000000000000000000000000000000815260040161022290610b62565b60405180910390fd5b60008084815481106102405761023f610b82565b5b906000526020600020906002020160405180604001604052908160008201805461026990610be0565b80601f016020809104026020016040519081016040528092919081815260200182805461029590610be0565b80156102e25780601f106102b7576101008083540402835291602001916102e2565b820191906000526020600020905b8154815290600101906020018083116102c557829003601f168201915b505050505081526020016001820160009054906101000a900473ffffffffffffffffffffffffffffffffffffffff1673ffffffffffffffffffffffffffffffffffffffff1673ffffffffffffffffffffffffffffffffffffffff16815250509050806000015181602001519250925050915091565b600060405161036590610775565b604051809103906000f080158015610381573d6000803e3d6000fd5b509050600060405180604001604052808481526020018373ffffffffffffffffffffffffffffffffffffffff16815250908060018154018082558091505060019003906000526020600020906002020160009091909190915060008201518160000190816103ef9190610dbd565b5060208201518160010160006101000a81548173ffffffffffffffffffffffffffffffffffffffff021916908373ffffffffffffffffffffffffffffffffffffffff160217905550505080600160003373ffffffffffffffffffffffffffffffffffffffff1673ffffffffffffffffffffffffffffffffffffffff16815260200190815260200160002060006101000a81548173ffffffffffffffffffffffffffffffffffffffff021916908373ffffffffffffffffffffffffffffffffffffffff1602179055507fa5372ff6b0b70f516f3bc27d933dc845d3dfc248ef5359ae962767d014e623428282336040516104ea93929190610e8f565b60405180910390a15050565b600080600090505b6000805490508110156105e3578260405160200161051c9190610f09565b604051602081830303815290604052805190602001206000828154811061054657610545610b82565b5b90600052602060002090600202016000016040516020016105679190610fa3565b60405160208183030381529060405280519060200120036105d0576000818154811061059657610595610b82565b5b906000526020600020906002020160010160009054906101000a900473ffffffffffffffffffffffffffffffffffffffff1691505061061f565b80806105db90610fe9565b9150506104fe565b506040517f08c379a00000000000000000000000000000000000000000000000000000000081526004016106169061107d565b60405180910390fd5b919050565b60008080549050905090565b6000600160008373ffffffffffffffffffffffffffffffffffffffff1673ffffffffffffffffffffffffffffffffffffffff16815260200190815260200160002060009054906101000a900473ffffffffffffffffffffffffffffffffffffffff169050919050565b600081815481106106a957600080fd5b90600052602060002090600202016000915090508060000180546106cc90610be0565b80601f01602080910402602001604051908101604052809291908181526020018280546106f890610be0565b80156107455780601f1061071a57610100808354040283529160200191610745565b820191906000526020600020905b81548152906001019060200180831161072857829003601f168201915b5050505050908060010160009054906101000a900473ffffffffffffffffffffffffffffffffffffffff16905082565b610bbf8061109e83390190565b6000604051905090565b600080fd5b600080fd5b600073ffffffffffffffffffffffffffffffffffffffff82169050919050565b60006107c182610796565b9050919050565b6107d1816107b6565b81146107dc57600080fd5b50565b6000813590506107ee816107c8565b92915050565b60006020828403121561080a5761080961078c565b5b6000610818848285016107df565b91505092915050565b61082a816107b6565b82525050565b60006020820190506108456000830184610821565b92915050565b6000819050919050565b61085e8161084b565b811461086957600080fd5b50565b60008135905061087b81610855565b92915050565b6000602082840312156108975761089661078c565b5b60006108a58482850161086c565b91505092915050565b600081519050919050565b600082825260208201905092915050565b60005b838110156108e85780820151818401526020810190506108cd565b60008484015250505050565b6000601f19601f8301169050919050565b6000610910826108ae565b61091a81856108b9565b935061092a8185602086016108ca565b610933816108f4565b840191505092915050565b600060408201905081810360008301526109588185610905565b90506109676020830184610821565b9392505050565b600080fd5b600080fd5b7f4e487b7100000000000000000000000000000000000000000000000000000000600052604160045260246000fd5b6109b0826108f4565b810181811067ffffffffffffffff821117156109cf576109ce610978565b5b80604052505050565b60006109e2610782565b90506109ee82826109a7565b919050565b600067ffffffffffffffff821115610a0e57610a0d610978565b5b610a17826108f4565b9050602081019050919050565b82818337600083830152505050565b6000610a46610a41846109f3565b6109d8565b905082815260208101848484011115610a6257610a61610973565b5b610a6d848285610a24565b509392505050565b600082601f830112610a8a57610a8961096e565b5b8135610a9a848260208601610a33565b91505092915050565b600060208284031215610ab957610ab861078c565b5b600082013567ffffffffffffffff811115610ad757610ad6610791565b5b610ae384828501610a75565b91505092915050565b610af58161084b565b82525050565b6000602082019050610b106000830184610aec565b92915050565b7f496e76616c696420696e64657800000000000000000000000000000000000000600082015250565b6000610b4c600d836108b9565b9150610b5782610b16565b602082019050919050565b60006020820190508181036000830152610b7b81610b3f565b9050919050565b7f4e487b7100000000000000000000000000000000000000000000000000000000600052603260045260246000fd5b7f4e487b7100000000000000000000000000000000000000000000000000000000600052602260045260246000fd5b60006002820490506001821680610bf857607f821691505b602082108103610c0b57610c0a610bb1565b5b50919050565b60008190508160005260206000209050919050565b60006020601f8301049050919050565b600082821b905092915050565b600060088302610c737fffffffffffffffffffffffffffffffffffffffffffffffffffffffffffffffff82610c36565b610c7d8683610c36565b95508019841693508086168417925050509392505050565b6000819050919050565b6000610cba610cb5610cb08461084b565b610c95565b61084b565b9050919050565b6000819050919050565b610cd483610c9f565b610ce8610ce082610cc1565b848454610c43565b825550505050565b600090565b610cfd610cf0565b610d08818484610ccb565b505050565b5b81811015610d2c57610d21600082610cf5565b600181019050610d0e565b5050565b601f821115610d7157610d4281610c11565b610d4b84610c26565b81016020851015610d5a578190505b610d6e610d6685610c26565b830182610d0d565b50505b505050565b600082821c905092915050565b6000610d9460001984600802610d76565b1980831691505092915050565b6000610dad8383610d83565b9150826002028217905092915050565b610dc6826108ae565b67ffffffffffffffff811115610ddf57610dde610978565b5b610de98254610be0565b610df4828285610d30565b600060209050601f831160018114610e275760008415610e15578287015190505b610e1f8582610da1565b865550610e87565b601f198416610e3586610c11565b60005b82811015610e5d57848901518255600182019150602085019450602081019050610e38565b86831015610e7a5784890151610e76601f891682610d83565b8355505b6001600288020188555050505b505050505050565b60006060820190508181036000830152610ea98186610905565b9050610eb86020830185610821565b610ec56040830184610821565b949350505050565b600081905092915050565b6000610ee3826108ae565b610eed8185610ecd565b9350610efd8185602086016108ca565b80840191505092915050565b6000610f158284610ed8565b915081905092915050565b60008154610f2d81610be0565b610f378186610ecd565b94506001821660008114610f525760018114610f6757610f9a565b60ff1983168652811515820286019350610f9a565b610f7085610c11565b60005b83811015610f9257815481890152600182019150602081019050610f73565b838801955050505b50505092915050565b6000610faf8284610f20565b915081905092915050565b7f4e487b7100000000000000000000000000000000000000000000000000000000600052601160045260246000fd5b6000610ff48261084b565b91507fffffffffffffffffffffffffffffffffffffffffffffffffffffffffffffffff820361102657611025610fba565b5b600182019050919050565b7f4f7267616e697a6174696f6e206e6f7420666f756e6400000000000000000000600082015250565b60006110676016836108b9565b915061107282611031565b602082019050919050565b600060208201905081810360008301526110968161105a565b905091905056fe608060405234801561001057600080fd5b50610b9f806100206000396000f3fe608060405234801561001057600080fd5b506004361061004c5760003560e01c80638e6c8ce3146100515780639906c86a1461006d578063a5ed06711461009d578063ed851877146100cd575b600080fd5b61006b60048036038101906100669190610502565b6100eb565b005b61008760048036038101906100829190610581565b61015d565b604051610094919061062d565b60405180910390f35b6100b760048036038101906100b2919061064f565b610209565b6040516100c491906106b3565b60405180910390f35b6100d56102b6565b6040516100e291906106dd565b60405180910390f35b60005b815181101561015957600082828151811061010c5761010b6106f8565b5b60200260200101519080600181540180825580915050600190039060005260206000200160009091909190915090816101459190610933565b50808061015190610a34565b9150506100ee565b5050565b6000818154811061016d57600080fd5b90600052602060002001600091509050805461018890610756565b80601f01602080910402602001604051908101604052809291908181526020018280546101b490610756565b80156102015780601f106101d657610100808354040283529160200191610201565b820191906000526020600020905b8154815290600101906020018083116101e457829003601f168201915b505050505081565b600080600090505b6000805490508110156102ab578260405160200161022f9190610ab8565b6040516020818303038152906040528051906020012060008281548110610259576102586106f8565b5b906000526020600020016040516020016102739190610b52565b60405160208183030381529060405280519060200120036102985760019150506102b1565b80806102a390610a34565b915050610211565b50600090505b919050565b60008080549050905090565b6000604051905090565b600080fd5b600080fd5b600080fd5b6000601f19601f8301169050919050565b7f4e487b7100000000000000000000000000000000000000000000000000000000600052604160045260246000fd5b610324826102db565b810181811067ffffffffffffffff82111715610343576103426102ec565b5b80604052505050565b60006103566102c2565b9050610362828261031b565b919050565b600067ffffffffffffffff821115610382576103816102ec565b5b602082029050602081019050919050565b600080fd5b600080fd5b600067ffffffffffffffff8211156103b8576103b76102ec565b5b6103c1826102db565b9050602081019050919050565b82818337600083830152505050565b60006103f06103eb8461039d565b61034c565b90508281526020810184848401111561040c5761040b610398565b5b6104178482856103ce565b509392505050565b600082601f830112610434576104336102d6565b5b81356104448482602086016103dd565b91505092915050565b600061046061045b84610367565b61034c565b9050808382526020820190506020840283018581111561048357610482610393565b5b835b818110156104ca57803567ffffffffffffffff8111156104a8576104a76102d6565b5b8086016104b5898261041f565b85526020850194505050602081019050610485565b5050509392505050565b600082601f8301126104e9576104e86102d6565b5b81356104f984826020860161044d565b91505092915050565b600060208284031215610518576105176102cc565b5b600082013567ffffffffffffffff811115610536576105356102d1565b5b610542848285016104d4565b91505092915050565b6000819050919050565b61055e8161054b565b811461056957600080fd5b50565b60008135905061057b81610555565b92915050565b600060208284031215610597576105966102cc565b5b60006105a58482850161056c565b91505092915050565b600081519050919050565b600082825260208201905092915050565b60005b838110156105e85780820151818401526020810190506105cd565b60008484015250505050565b60006105ff826105ae565b61060981856105b9565b93506106198185602086016105ca565b610622816102db565b840191505092915050565b6000602082019050818103600083015261064781846105f4565b905092915050565b600060208284031215610665576106646102cc565b5b600082013567ffffffffffffffff811115610683576106826102d1565b5b61068f8482850161041f565b91505092915050565b60008115159050919050565b6106ad81610698565b82525050565b60006020820190506106c860008301846106a4565b92915050565b6106d78161054b565b82525050565b60006020820190506106f260008301846106ce565b92915050565b7f4e487b7100000000000000000000000000000000000000000000000000000000600052603260045260246000fd5b7f4e487b7100000000000000000000000000000000000000000000000000000000600052602260045260246000fd5b6000600282049050600182168061076e57607f821691505b60208210810361078157610780610727565b5b50919050565b60008190508160005260206000209050919050565b60006020601f8301049050919050565b600082821b905092915050565b6000600883026107e97fffffffffffffffffffffffffffffffffffffffffffffffffffffffffffffffff826107ac565b6107f386836107ac565b95508019841693508086168417925050509392505050565b6000819050919050565b600061083061082b6108268461054b565b61080b565b61054b565b9050919050565b6000819050919050565b61084a83610815565b61085e61085682610837565b8484546107b9565b825550505050565b600090565b610873610866565b61087e818484610841565b505050565b5b818110156108a25761089760008261086b565b600181019050610884565b5050565b601f8211156108e7576108b881610787565b6108c18461079c565b810160208510156108d0578190505b6108e46108dc8561079c565b830182610883565b50505b505050565b600082821c905092915050565b600061090a600019846008026108ec565b1980831691505092915050565b600061092383836108f9565b9150826002028217905092915050565b61093c826105ae565b67ffffffffffffffff811115610955576109546102ec565b5b61095f8254610756565b61096a8282856108a6565b600060209050601f83116001811461099d576000841561098b578287015190505b6109958582610917565b8655506109fd565b601f1984166109ab86610787565b60005b828110156109d3578489015182556001820191506020850194506020810190506109ae565b868310156109f057848901516109ec601f8916826108f9565b8355505b6001600288020188555050505b505050505050565b7f4e487b7100000000000000000000000000000000000000000000000000000000600052601160045260246000fd5b6000610a3f8261054b565b91507fffffffffffffffffffffffffffffffffffffffffffffffffffffffffffffffff8203610a7157610a70610a05565b5b600182019050919050565b600081905092915050565b6000610a92826105ae565b610a9c8185610a7c565b9350610aac8185602086016105ca565b80840191505092915050565b6000610ac48284610a87565b915081905092915050565b60008154610adc81610756565b610ae68186610a7c565b94506001821660008114610b015760018114610b1657610b49565b60ff1983168652811515820286019350610b49565b610b1f85610787565b60005b83811015610b4157815481890152600182019150602081019050610b22565b838801955050505b50505092915050565b6000610b5e8284610acf565b91508190509291505056fea264697066735822122052f0db2d55207d0d9eaa78c2a28fa0c73a8e8aa272e8cdbd6ad38e1f066c721064736f6c63430008140033a264697066735822122084a7ff55c5eb5a41af99d5c64a4dec8bfc989aa87c7ef939f9e807c0edd76c9c64736f6c63430008140033",
  "linkReferences": {},
  "deployedLinkReferences": {}
}