{
  "_format": "hh-sol-artifact-1",
  "contractName": "CertificationManager",
  "sourceName": "contracts/Lock.sol",
  "abi": [
    {
      "inputs": [],
      "name": "InvalidInitialization",
      "type": "error"
    },
    {
      "inputs": [],
      "name": "NotInitializing",
      "type": "error"
    },
    {
      "anonymous": false,
      "inputs": [
        {
          "indexed": false,
          "internalType": "uint16",
          "name": "orgId",
          "type": "uint16"
        },
        {
          "indexed": false,
          "internalType": "string",
          "name": "certId",
          "type": "string"
        }
      ],
      "name": "CertificateCreated",
      "type": "event"
    },
    {
      "anonymous": false,
      "inputs": [
        {
          "indexed": false,
          "internalType": "uint64",
          "name": "version",
          "type": "uint64"
        }
      ],
      "name": "Initialized",
      "type": "event"
    },
    {
      "anonymous": false,
      "inputs": [
        {
          "indexed": false,
          "internalType": "uint16",
          "name": "id",
          "type": "uint16"
        },
        {
          "indexed": false,
          "internalType": "address",
          "name": "contractAddress",
          "type": "address"
        }
      ],
      "name": "OrganisationRegistered",
      "type": "event"
    },
    {
      "anonymous": false,
      "inputs": [
        {
          "indexed": false,
          "internalType": "uint16",
          "name": "id",
          "type": "uint16"
        }
      ],
      "name": "OrganisationRemoved",
      "type": "event"
    },
    {
      "inputs": [
        {
          "internalType": "uint16",
          "name": "orgId",
          "type": "uint16"
        },
        {
          "internalType": "string",
          "name": "certId",
          "type": "string"
        },
        {
          "internalType": "bytes32",
          "name": "hashedCertificate",
          "type": "bytes32"
        }
      ],
      "name": "createCertificate",
      "outputs": [],
      "stateMutability": "nonpayable",
      "type": "function"
    },
    {
      "inputs": [],
      "name": "initialize",
      "outputs": [],
      "stateMutability": "nonpayable",
      "type": "function"
    },
    {
      "inputs": [
        {
          "internalType": "uint16",
          "name": "",
          "type": "uint16"
        }
      ],
      "name": "organisationContracts",
      "outputs": [
        {
          "internalType": "address",
          "name": "",
          "type": "address"
        }
      ],
      "stateMutability": "view",
      "type": "function"
    },
    {
      "inputs": [
        {
          "internalType": "uint16",
          "name": "",
          "type": "uint16"
        }
      ],
      "name": "organisations",
      "outputs": [
        {
          "internalType": "string",
          "name": "name",
          "type": "string"
        },
        {
          "internalType": "address",
          "name": "accountAddress",
          "type": "address"
        },
        {
          "internalType": "bool",
          "name": "isCreated",
          "type": "bool"
        }
      ],
      "stateMutability": "view",
      "type": "function"
    },
    {
      "inputs": [],
      "name": "owner",
      "outputs": [
        {
          "internalType": "address",
          "name": "",
          "type": "address"
        }
      ],
      "stateMutability": "view",
      "type": "function"
    },
    {
      "inputs": [
        {
          "internalType": "string",
          "name": "name",
          "type": "string"
        },
        {
          "internalType": "uint16",
          "name": "id",
          "type": "uint16"
        }
      ],
      "name": "registerOrganisation",
      "outputs": [
        {
          "internalType": "address",
          "name": "",
          "type": "address"
        }
      ],
      "stateMutability": "nonpayable",
      "type": "function"
    },
    {
      "inputs": [
        {
          "internalType": "uint16",
          "name": "id",
          "type": "uint16"
        }
      ],
      "name": "removeOrganisation",
      "outputs": [
        {
          "internalType": "bool",
          "name": "",
          "type": "bool"
        }
      ],
      "stateMutability": "nonpayable",
      "type": "function"
    },
    {
      "inputs": [
        {
          "internalType": "uint16",
          "name": "orgId",
          "type": "uint16"
        },
        {
          "internalType": "string",
          "name": "certId",
          "type": "string"
        },
        {
          "internalType": "bytes32",
          "name": "hashToValidate",
          "type": "bytes32"
        }
      ],
      "name": "validateCertificate",
      "outputs": [
        {
          "internalType": "bool",
          "name": "",
          "type": "bool"
        }
      ],
      "stateMutability": "view",
      "type": "function"
    }
  ],
  "bytecode": "0x608060405234801561001057600080fd5b50612c4f806100206000396000f3fe60806040523480156200001157600080fd5b5060043610620000945760003560e01c80638129fc1c11620000635780638129fc1c146200015d5780638da5cb5b14620001695780638e6b5c34146200018b578063cc5857a014620001c15762000094565b80630521750314620000995780631e1bb2c114620000d15780633c571ce014620000f157806370ed30921462000127575b600080fd5b620000b76004803603810190620000b1919062000e76565b620001f7565b604051620000c89392919062000fa4565b60405180910390f35b620000ef6004803603810190620000e9919062001174565b620002de565b005b6200010f600480360381019062000109919062001174565b6200052f565b6040516200011e9190620011ef565b60405180910390f35b6200014560048036038101906200013f919062000e76565b620006ab565b6040516200015491906200120c565b60405180910390f35b62000167620006de565b005b62000173620008ae565b6040516200018291906200120c565b60405180910390f35b620001a96004803603810190620001a3919062001229565b620008d4565b604051620001b891906200120c565b60405180910390f35b620001df6004803603810190620001d9919062000e76565b62000b3d565b604051620001ee9190620011ef565b60405180910390f35b60006020528060005260406000206000915090508060000180546200021c90620012be565b80601f01602080910402602001604051908101604052809291908181526020018280546200024a90620012be565b80156200029b5780601f106200026f576101008083540402835291602001916200029b565b820191906000526020600020905b8154815290600101906020018083116200027d57829003601f168201915b5050505050908060010160009054906101000a900473ffffffffffffffffffffffffffffffffffffffff16908060010160149054906101000a900460ff16905083565b823373ffffffffffffffffffffffffffffffffffffffff166000808361ffff1661ffff16815260200190815260200160002060010160009054906101000a900473ffffffffffffffffffffffffffffffffffffffff1673ffffffffffffffffffffffffffffffffffffffff16146200038d576040517f08c379a0000000000000000000000000000000000000000000000000000000008152600401620003849062001343565b60405180910390fd5b83600073ffffffffffffffffffffffffffffffffffffffff16600160008361ffff1661ffff16815260200190815260200160002060009054906101000a900473ffffffffffffffffffffffffffffffffffffffff1673ffffffffffffffffffffffffffffffffffffffff16036200043b576040517f08c379a00000000000000000000000000000000000000000000000000000000081526004016200043290620013b5565b60405180910390fd5b6000600160008761ffff1661ffff16815260200190815260200160002060009054906101000a900473ffffffffffffffffffffffffffffffffffffffff1690508073ffffffffffffffffffffffffffffffffffffffff1663eb537e9186866040518363ffffffff1660e01b8152600401620004b8929190620013e8565b600060405180830381600087803b158015620004d357600080fd5b505af1158015620004e8573d6000803e3d6000fd5b505050507f8335e09747d7e002956fb2b4eeaf39bab6e63c0d9a10901c524b61dbbb2292ce86866040516200051f9291906200142d565b60405180910390a1505050505050565b600083600073ffffffffffffffffffffffffffffffffffffffff16600160008361ffff1661ffff16815260200190815260200160002060009054906101000a900473ffffffffffffffffffffffffffffffffffffffff1673ffffffffffffffffffffffffffffffffffffffff1603620005df576040517f08c379a0000000000000000000000000000000000000000000000000000000008152600401620005d690620013b5565b60405180910390fd5b6000600160008761ffff1661ffff16815260200190815260200160002060009054906101000a900473ffffffffffffffffffffffffffffffffffffffff1690508073ffffffffffffffffffffffffffffffffffffffff166381dbb5e186866040518363ffffffff1660e01b81526004016200065c929190620013e8565b602060405180830381865afa1580156200067a573d6000803e3d6000fd5b505050506040513d601f19601f82011682018060405250810190620006a0919062001492565b925050509392505050565b60016020528060005260406000206000915054906101000a900473ffffffffffffffffffffffffffffffffffffffff1681565b6000620006ea62000d88565b905060008160000160089054906101000a900460ff1615905060008260000160009054906101000a900467ffffffffffffffff1690506000808267ffffffffffffffff16148015620007395750825b9050600060018367ffffffffffffffff161480156200076f575060003073ffffffffffffffffffffffffffffffffffffffff163b145b9050811580156200077e575080155b15620007b6576040517ff92ee8a900000000000000000000000000000000000000000000000000000000815260040160405180910390fd5b60018560000160006101000a81548167ffffffffffffffff021916908367ffffffffffffffff1602179055508315620008075760018560000160086101000a81548160ff0219169083151502179055505b33600260006101000a81548173ffffffffffffffffffffffffffffffffffffffff021916908373ffffffffffffffffffffffffffffffffffffffff1602179055508315620008a75760008560000160086101000a81548160ff0219169083151502179055507fc7f505b2f371ae2175ee4913f4499e1f2633a7b5936321eed1cdaeb6115181d260016040516200089e919062001525565b60405180910390a15b5050505050565b600260009054906101000a900473ffffffffffffffffffffffffffffffffffffffff1681565b60008060008361ffff1661ffff16815260200190815260200160002060010160149054906101000a900460ff161562000944576040517f08c379a00000000000000000000000000000000000000000000000000000000081526004016200093b90620015b8565b60405180910390fd5b60008351036200098b576040517f08c379a000000000000000000000000000000000000000000000000000000000815260040162000982906200162a565b60405180910390fd5b6000308484336040516200099f9062000db0565b620009ae94939291906200164c565b604051809103906000f080158015620009cb573d6000803e3d6000fd5b50905060405180606001604052808581526020013373ffffffffffffffffffffffffffffffffffffffff168152602001600115158152506000808561ffff1661ffff168152602001908152602001600020600082015181600001908162000a33919062001872565b5060208201518160010160006101000a81548173ffffffffffffffffffffffffffffffffffffffff021916908373ffffffffffffffffffffffffffffffffffffffff16021790555060408201518160010160146101000a81548160ff02191690831515021790555090505080600160008561ffff1661ffff16815260200190815260200160002060006101000a81548173ffffffffffffffffffffffffffffffffffffffff021916908373ffffffffffffffffffffffffffffffffffffffff1602179055507f56e1b8938878c417bec7dc9e3f90b1c482622346c8bfe7171b3b1280937df225838260405162000b2b92919062001959565b60405180910390a18091505092915050565b6000813373ffffffffffffffffffffffffffffffffffffffff166000808361ffff1661ffff16815260200190815260200160002060010160009054906101000a900473ffffffffffffffffffffffffffffffffffffffff1673ffffffffffffffffffffffffffffffffffffffff161462000bee576040517f08c379a000000000000000000000000000000000000000000000000000000000815260040162000be59062001343565b60405180910390fd5b82600073ffffffffffffffffffffffffffffffffffffffff16600160008361ffff1661ffff16815260200190815260200160002060009054906101000a900473ffffffffffffffffffffffffffffffffffffffff1673ffffffffffffffffffffffffffffffffffffffff160362000c9c576040517f08c379a000000000000000000000000000000000000000000000000000000000815260040162000c9390620013b5565b60405180910390fd5b6000808561ffff1661ffff1681526020019081526020016000206000808201600062000cc9919062000dbe565b6001820160006101000a81549073ffffffffffffffffffffffffffffffffffffffff02191690556001820160146101000a81549060ff02191690555050600160008561ffff1661ffff16815260200190815260200160002060006101000a81549073ffffffffffffffffffffffffffffffffffffffff02191690557f9497545f8d07c13a69f7df98409981aa8c2a208c57e5cb5a435dfb45cd06dde28460405162000d75919062001986565b60405180910390a1600192505050919050565b60007ff0c57e16840df040f15088dc2f81fe391c3923bec73e23a9662efc9c229c6a00905090565b61127680620019a483390190565b50805462000dcc90620012be565b6000825580601f1062000de0575062000e01565b601f01602090049060005260206000209081019062000e00919062000e04565b5b50565b5b8082111562000e1f57600081600090555060010162000e05565b5090565b6000604051905090565b600080fd5b600080fd5b600061ffff82169050919050565b62000e508162000e37565b811462000e5c57600080fd5b50565b60008135905062000e708162000e45565b92915050565b60006020828403121562000e8f5762000e8e62000e2d565b5b600062000e9f8482850162000e5f565b91505092915050565b600081519050919050565b600082825260208201905092915050565b60005b8381101562000ee457808201518184015260208101905062000ec7565b60008484015250505050565b6000601f19601f8301169050919050565b600062000f0e8262000ea8565b62000f1a818562000eb3565b935062000f2c81856020860162000ec4565b62000f378162000ef0565b840191505092915050565b600073ffffffffffffffffffffffffffffffffffffffff82169050919050565b600062000f6f8262000f42565b9050919050565b62000f818162000f62565b82525050565b60008115159050919050565b62000f9e8162000f87565b82525050565b6000606082019050818103600083015262000fc0818662000f01565b905062000fd1602083018562000f76565b62000fe0604083018462000f93565b949350505050565b600080fd5b600080fd5b7f4e487b7100000000000000000000000000000000000000000000000000000000600052604160045260246000fd5b6200102c8262000ef0565b810181811067ffffffffffffffff821117156200104e576200104d62000ff2565b5b80604052505050565b60006200106362000e23565b905062001071828262001021565b919050565b600067ffffffffffffffff82111562001094576200109362000ff2565b5b6200109f8262000ef0565b9050602081019050919050565b82818337600083830152505050565b6000620010d2620010cc8462001076565b62001057565b905082815260208101848484011115620010f157620010f062000fed565b5b620010fe848285620010ac565b509392505050565b600082601f8301126200111e576200111d62000fe8565b5b813562001130848260208601620010bb565b91505092915050565b6000819050919050565b6200114e8162001139565b81146200115a57600080fd5b50565b6000813590506200116e8162001143565b92915050565b60008060006060848603121562001190576200118f62000e2d565b5b6000620011a08682870162000e5f565b935050602084013567ffffffffffffffff811115620011c457620011c362000e32565b5b620011d28682870162001106565b9250506040620011e5868287016200115d565b9150509250925092565b600060208201905062001206600083018462000f93565b92915050565b600060208201905062001223600083018462000f76565b92915050565b6000806040838503121562001243576200124262000e2d565b5b600083013567ffffffffffffffff81111562001264576200126362000e32565b5b620012728582860162001106565b9250506020620012858582860162000e5f565b9150509250929050565b7f4e487b7100000000000000000000000000000000000000000000000000000000600052602260045260246000fd5b60006002820490506001821680620012d757607f821691505b602082108103620012ed57620012ec6200128f565b5b50919050565b7f4e6f7420617574686f72697a6564000000000000000000000000000000000000600082015250565b60006200132b600e8362000eb3565b91506200133882620012f3565b602082019050919050565b600060208201905081810360008301526200135e816200131c565b9050919050565b7f4f7267616e69736174696f6e20636f6e7472616374206e6f742076616c696400600082015250565b60006200139d601f8362000eb3565b9150620013aa8262001365565b602082019050919050565b60006020820190508181036000830152620013d0816200138e565b9050919050565b620013e28162001139565b82525050565b6000604082019050818103600083015262001404818562000f01565b9050620014156020830184620013d7565b9392505050565b620014278162000e37565b82525050565b60006040820190506200144460008301856200141c565b818103602083015262001458818462000f01565b90509392505050565b6200146c8162000f87565b81146200147857600080fd5b50565b6000815190506200148c8162001461565b92915050565b600060208284031215620014ab57620014aa62000e2d565b5b6000620014bb848285016200147b565b91505092915050565b6000819050919050565b600067ffffffffffffffff82169050919050565b6000819050919050565b60006200150d620015076200150184620014c4565b620014e2565b620014ce565b9050919050565b6200151f81620014ec565b82525050565b60006020820190506200153c600083018462001514565b92915050565b7f54686973204f7267616e69736174696f6e20496420697320616c72656164792060008201527f696e207573650000000000000000000000000000000000000000000000000000602082015250565b6000620015a060268362000eb3565b9150620015ad8262001542565b604082019050919050565b60006020820190508181036000830152620015d38162001591565b9050919050565b7f496e76616c6964204f7267616e69736174696f6e2044657461696c7300000000600082015250565b600062001612601c8362000eb3565b91506200161f82620015da565b602082019050919050565b60006020820190508181036000830152620016458162001603565b9050919050565b600060808201905062001663600083018762000f76565b818103602083015262001677818662000f01565b90506200168860408301856200141c565b62001697606083018462000f76565b95945050505050565b60008190508160005260206000209050919050565b60006020601f8301049050919050565b600082821b905092915050565b600060088302620017047fffffffffffffffffffffffffffffffffffffffffffffffffffffffffffffffff82620016c5565b620017108683620016c5565b95508019841693508086168417925050509392505050565b6000819050919050565b6000620017536200174d620017478462001728565b620014e2565b62001728565b9050919050565b6000819050919050565b6200176f8362001732565b620017876200177e826200175a565b848454620016d2565b825550505050565b600090565b6200179e6200178f565b620017ab81848462001764565b505050565b5b81811015620017d357620017c760008262001794565b600181019050620017b1565b5050565b601f8211156200182257620017ec81620016a0565b620017f784620016b5565b8101602085101562001807578190505b6200181f6200181685620016b5565b830182620017b0565b50505b505050565b600082821c905092915050565b6000620018476000198460080262001827565b1980831691505092915050565b600062001862838362001834565b9150826002028217905092915050565b6200187d8262000ea8565b67ffffffffffffffff81111562001899576200189862000ff2565b5b620018a58254620012be565b620018b2828285620017d7565b600060209050601f831160018114620018ea5760008415620018d5578287015190505b620018e1858262001854565b86555062001951565b601f198416620018fa86620016a0565b60005b828110156200192457848901518255600182019150602085019450602081019050620018fd565b8683101562001944578489015162001940601f89168262001834565b8355505b6001600288020188555050505b505050505050565b60006040820190506200197060008301856200141c565b6200197f602083018462000f76565b9392505050565b60006020820190506200199d60008301846200141c565b9291505056fe60806040523480156200001157600080fd5b506040516200127638038062001276833981810160405281019062000037919062000344565b83600260006101000a81548173ffffffffffffffffffffffffffffffffffffffff021916908373ffffffffffffffffffffffffffffffffffffffff160217905550826000908162000089919062000620565b5081600160006101000a81548161ffff021916908361ffff16021790555080600160026101000a81548173ffffffffffffffffffffffffffffffffffffffff021916908373ffffffffffffffffffffffffffffffffffffffff1602179055506000600260146101000a81548160ff0219169083151502179055505050505062000707565b6000604051905090565b600080fd5b600080fd5b600073ffffffffffffffffffffffffffffffffffffffff82169050919050565b60006200014e8262000121565b9050919050565b620001608162000141565b81146200016c57600080fd5b50565b600081519050620001808162000155565b92915050565b600080fd5b600080fd5b6000601f19601f8301169050919050565b7f4e487b7100000000000000000000000000000000000000000000000000000000600052604160045260246000fd5b620001db8262000190565b810181811067ffffffffffffffff82111715620001fd57620001fc620001a1565b5b80604052505050565b6000620002126200010d565b9050620002208282620001d0565b919050565b600067ffffffffffffffff821115620002435762000242620001a1565b5b6200024e8262000190565b9050602081019050919050565b60005b838110156200027b5780820151818401526020810190506200025e565b60008484015250505050565b60006200029e620002988462000225565b62000206565b905082815260208101848484011115620002bd57620002bc6200018b565b5b620002ca8482856200025b565b509392505050565b600082601f830112620002ea57620002e962000186565b5b8151620002fc84826020860162000287565b91505092915050565b600061ffff82169050919050565b6200031e8162000305565b81146200032a57600080fd5b50565b6000815190506200033e8162000313565b92915050565b6000806000806080858703121562000361576200036062000117565b5b600062000371878288016200016f565b945050602085015167ffffffffffffffff8111156200039557620003946200011c565b5b620003a387828801620002d2565b9350506040620003b6878288016200032d565b9250506060620003c9878288016200016f565b91505092959194509250565b600081519050919050565b7f4e487b7100000000000000000000000000000000000000000000000000000000600052602260045260246000fd5b600060028204905060018216806200042857607f821691505b6020821081036200043e576200043d620003e0565b5b50919050565b60008190508160005260206000209050919050565b60006020601f8301049050919050565b600082821b905092915050565b600060088302620004a87fffffffffffffffffffffffffffffffffffffffffffffffffffffffffffffffff8262000469565b620004b4868362000469565b95508019841693508086168417925050509392505050565b6000819050919050565b6000819050919050565b600062000501620004fb620004f584620004cc565b620004d6565b620004cc565b9050919050565b6000819050919050565b6200051d83620004e0565b620005356200052c8262000508565b84845462000476565b825550505050565b600090565b6200054c6200053d565b6200055981848462000512565b505050565b5b8181101562000581576200057560008262000542565b6001810190506200055f565b5050565b601f821115620005d0576200059a8162000444565b620005a58462000459565b81016020851015620005b5578190505b620005cd620005c48562000459565b8301826200055e565b50505b505050565b600082821c905092915050565b6000620005f560001984600802620005d5565b1980831691505092915050565b6000620006108383620005e2565b9150826002028217905092915050565b6200062b82620003d5565b67ffffffffffffffff811115620006475762000646620001a1565b5b6200065382546200040f565b6200066082828562000585565b600060209050601f83116001811462000698576000841562000683578287015190505b6200068f858262000602565b865550620006ff565b601f198416620006a88662000444565b60005b82811015620006d257848901518255600182019150602085019450602081019050620006ab565b86831015620006f25784890151620006ee601f891682620005e2565b8355505b6001600288020188555050505b505050505050565b610b5f80620007176000396000f3fe608060405234801561001057600080fd5b50600436106100885760003560e01c8063797ea25d1161005b578063797ea25d146100f157806381dbb5e11461010f578063ea8b5ca31461013f578063eb537e911461015d57610088565b80630f73d0b41461008d5780631386dc2d146100975780631730bdfe146100b5578063481c6a75146100d3575b600080fd5b610095610179565b005b61009f610226565b6040516100ac91906105ff565b60405180910390f35b6100bd6102b4565b6040516100ca919061063e565b60405180910390f35b6100db6102c8565b6040516100e8919061069a565b60405180910390f35b6100f96102ee565b604051610106919061069a565b60405180910390f35b61012960048036038101906101249190610834565b610314565b60405161013691906108ab565b60405180910390f35b6101476103f2565b60405161015491906108ab565b60405180910390f35b61017760048036038101906101729190610834565b610405565b005b600260009054906101000a900473ffffffffffffffffffffffffffffffffffffffff1673ffffffffffffffffffffffffffffffffffffffff163373ffffffffffffffffffffffffffffffffffffffff1614610209576040517f08c379a000000000000000000000000000000000000000000000000000000000815260040161020090610912565b60405180910390fd5b6001600260146101000a81548160ff021916908315150217905550565b6000805461023390610961565b80601f016020809104026020016040519081016040528092919081815260200182805461025f90610961565b80156102ac5780601f10610281576101008083540402835291602001916102ac565b820191906000526020600020905b81548152906001019060200180831161028f57829003601f168201915b505050505081565b600160009054906101000a900461ffff1681565b600260009054906101000a900473ffffffffffffffffffffffffffffffffffffffff1681565b600160029054906101000a900473ffffffffffffffffffffffffffffffffffffffff1681565b6000600260149054906101000a900460ff1615610366576040517f08c379a000000000000000000000000000000000000000000000000000000000815260040161035d906109de565b60405180910390fd5b6000801b60038460405161037a9190610a3a565b908152602001604051809103902054036103c9576040517f08c379a00000000000000000000000000000000000000000000000000000000081526004016103c090610a9d565b60405180910390fd5b6003836040516103d99190610a3a565b9081526020016040518091039020548214905092915050565b600260149054906101000a900460ff1681565b600260009054906101000a900473ffffffffffffffffffffffffffffffffffffffff1673ffffffffffffffffffffffffffffffffffffffff163373ffffffffffffffffffffffffffffffffffffffff1614610495576040517f08c379a000000000000000000000000000000000000000000000000000000000815260040161048c90610912565b60405180910390fd5b600260149054906101000a900460ff16156104e5576040517f08c379a00000000000000000000000000000000000000000000000000000000081526004016104dc906109de565b60405180910390fd5b6000801b6003836040516104f99190610a3a565b90815260200160405180910390205414610548576040517f08c379a000000000000000000000000000000000000000000000000000000000815260040161053f90610b09565b60405180910390fd5b806003836040516105599190610a3a565b9081526020016040518091039020819055505050565b600081519050919050565b600082825260208201905092915050565b60005b838110156105a957808201518184015260208101905061058e565b60008484015250505050565b6000601f19601f8301169050919050565b60006105d18261056f565b6105db818561057a565b93506105eb81856020860161058b565b6105f4816105b5565b840191505092915050565b6000602082019050818103600083015261061981846105c6565b905092915050565b600061ffff82169050919050565b61063881610621565b82525050565b6000602082019050610653600083018461062f565b92915050565b600073ffffffffffffffffffffffffffffffffffffffff82169050919050565b600061068482610659565b9050919050565b61069481610679565b82525050565b60006020820190506106af600083018461068b565b92915050565b6000604051905090565b600080fd5b600080fd5b600080fd5b600080fd5b7f4e487b7100000000000000000000000000000000000000000000000000000000600052604160045260246000fd5b61070b826105b5565b810181811067ffffffffffffffff8211171561072a576107296106d3565b5b80604052505050565b600061073d6106b5565b90506107498282610702565b919050565b600067ffffffffffffffff821115610769576107686106d3565b5b610772826105b5565b9050602081019050919050565b82818337600083830152505050565b60006107a161079c8461074e565b610733565b9050828152602081018484840111156107bd576107bc6106ce565b5b6107c884828561077f565b509392505050565b600082601f8301126107e5576107e46106c9565b5b81356107f584826020860161078e565b91505092915050565b6000819050919050565b610811816107fe565b811461081c57600080fd5b50565b60008135905061082e81610808565b92915050565b6000806040838503121561084b5761084a6106bf565b5b600083013567ffffffffffffffff811115610869576108686106c4565b5b610875858286016107d0565b92505060206108868582860161081f565b9150509250929050565b60008115159050919050565b6108a581610890565b82525050565b60006020820190506108c0600083018461089c565b92915050565b7f4e6f7420617574686f72697a6564000000000000000000000000000000000000600082015250565b60006108fc600e8361057a565b9150610907826108c6565b602082019050919050565b6000602082019050818103600083015261092b816108ef565b9050919050565b7f4e487b7100000000000000000000000000000000000000000000000000000000600052602260045260246000fd5b6000600282049050600182168061097957607f821691505b60208210810361098c5761098b610932565b5b50919050565b7f436f6e7472616374206578706972656400000000000000000000000000000000600082015250565b60006109c860108361057a565b91506109d382610992565b602082019050919050565b600060208201905081810360008301526109f7816109bb565b9050919050565b600081905092915050565b6000610a148261056f565b610a1e81856109fe565b9350610a2e81856020860161058b565b80840191505092915050565b6000610a468284610a09565b915081905092915050565b7f436572746966696361746520696420646f6573206e6f74206578697374000000600082015250565b6000610a87601d8361057a565b9150610a9282610a51565b602082019050919050565b60006020820190508181036000830152610ab681610a7a565b9050919050565b7f436572746966696361746520696420616c726561647920657869737473000000600082015250565b6000610af3601d8361057a565b9150610afe82610abd565b602082019050919050565b60006020820190508181036000830152610b2281610ae6565b905091905056fea2646970667358221220029b99f05b10548771e184f38df876bc45f50f738e331ab3426ec8fcf06dc97464736f6c63430008140033a2646970667358221220ec087b3fc551297852328facc7968027ce5f5a24b2b58f30f1802e3269b432a764736f6c63430008140033",
  "linkReferences": {},
  "deployedLinkReferences": {}
}