{
  "_format": "hh-sol-artifact-1",
  "contractName": "Certification",
  "sourceName": "contracts/Lock.sol",
  "abi": [
    {
      "inputs": [
        {
          "internalType": "address",
          "name": "_manager",
          "type": "address"
        },
        {
          "internalType": "string",
          "name": "_orgName",
          "type": "string"
        },
        {
          "internalType": "uint16",
          "name": "_orgId",
          "type": "uint16"
        },
        {
          "internalType": "address",
          "name": "_orgAddress",
          "type": "address"
        }
      ],
      "stateMutability": "nonpayable",
      "type": "constructor"
    },
    {
      "inputs": [
        {
          "internalType": "string",
          "name": "certId",
          "type": "string"
        },
        {
          "internalType": "bytes32",
          "name": "hashedCertificate",
          "type": "bytes32"
        }
      ],
      "name": "createCertificate",
      "outputs": [],
      "stateMutability": "nonpayable",
      "type": "function"
    },
    {
      "inputs": [],
      "name": "expireContract",
      "outputs": [],
      "stateMutability": "nonpayable",
      "type": "function"
    },
    {
      "inputs": [],
      "name": "isContractExpired",
      "outputs": [
        {
          "internalType": "bool",
          "name": "",
          "type": "bool"
        }
      ],
      "stateMutability": "view",
      "type": "function"
    },
    {
      "inputs": [],
      "name": "manager",
      "outputs": [
        {
          "internalType": "address",
          "name": "",
          "type": "address"
        }
      ],
      "stateMutability": "view",
      "type": "function"
    },
    {
      "inputs": [],
      "name": "orgAddress",
      "outputs": [
        {
          "internalType": "address",
          "name": "",
          "type": "address"
        }
      ],
      "stateMutability": "view",
      "type": "function"
    },
    {
      "inputs": [],
      "name": "orgId",
      "outputs": [
        {
          "internalType": "uint16",
          "name": "",
          "type": "uint16"
        }
      ],
      "stateMutability": "view",
      "type": "function"
    },
    {
      "inputs": [],
      "name": "orgName",
      "outputs": [
        {
          "internalType": "string",
          "name": "",
          "type": "string"
        }
      ],
      "stateMutability": "view",
      "type": "function"
    },
    {
      "inputs": [
        {
          "internalType": "string",
          "name": "certId",
          "type": "string"
        },
        {
          "internalType": "bytes32",
          "name": "hashToValidate",
          "type": "bytes32"
        }
      ],
      "name": "validateCertificate",
      "outputs": [
        {
          "internalType": "bool",
          "name": "",
          "type": "bool"
        }
      ],
      "stateMutability": "view",
      "type": "function"
    }
  ],
  "bytecode": "0x60806040523480156200001157600080fd5b506040516200127638038062001276833981810160405281019062000037919062000344565b83600260006101000a81548173ffffffffffffffffffffffffffffffffffffffff021916908373ffffffffffffffffffffffffffffffffffffffff160217905550826000908162000089919062000620565b5081600160006101000a81548161ffff021916908361ffff16021790555080600160026101000a81548173ffffffffffffffffffffffffffffffffffffffff021916908373ffffffffffffffffffffffffffffffffffffffff1602179055506000600260146101000a81548160ff0219169083151502179055505050505062000707565b6000604051905090565b600080fd5b600080fd5b600073ffffffffffffffffffffffffffffffffffffffff82169050919050565b60006200014e8262000121565b9050919050565b620001608162000141565b81146200016c57600080fd5b50565b600081519050620001808162000155565b92915050565b600080fd5b600080fd5b6000601f19601f8301169050919050565b7f4e487b7100000000000000000000000000000000000000000000000000000000600052604160045260246000fd5b620001db8262000190565b810181811067ffffffffffffffff82111715620001fd57620001fc620001a1565b5b80604052505050565b6000620002126200010d565b9050620002208282620001d0565b919050565b600067ffffffffffffffff821115620002435762000242620001a1565b5b6200024e8262000190565b9050602081019050919050565b60005b838110156200027b5780820151818401526020810190506200025e565b60008484015250505050565b60006200029e620002988462000225565b62000206565b905082815260208101848484011115620002bd57620002bc6200018b565b5b620002ca8482856200025b565b509392505050565b600082601f830112620002ea57620002e962000186565b5b8151620002fc84826020860162000287565b91505092915050565b600061ffff82169050919050565b6200031e8162000305565b81146200032a57600080fd5b50565b6000815190506200033e8162000313565b92915050565b6000806000806080858703121562000361576200036062000117565b5b600062000371878288016200016f565b945050602085015167ffffffffffffffff8111156200039557620003946200011c565b5b620003a387828801620002d2565b9350506040620003b6878288016200032d565b9250506060620003c9878288016200016f565b91505092959194509250565b600081519050919050565b7f4e487b7100000000000000000000000000000000000000000000000000000000600052602260045260246000fd5b600060028204905060018216806200042857607f821691505b6020821081036200043e576200043d620003e0565b5b50919050565b60008190508160005260206000209050919050565b60006020601f8301049050919050565b600082821b905092915050565b600060088302620004a87fffffffffffffffffffffffffffffffffffffffffffffffffffffffffffffffff8262000469565b620004b4868362000469565b95508019841693508086168417925050509392505050565b6000819050919050565b6000819050919050565b600062000501620004fb620004f584620004cc565b620004d6565b620004cc565b9050919050565b6000819050919050565b6200051d83620004e0565b620005356200052c8262000508565b84845462000476565b825550505050565b600090565b6200054c6200053d565b6200055981848462000512565b505050565b5b8181101562000581576200057560008262000542565b6001810190506200055f565b5050565b601f821115620005d0576200059a8162000444565b620005a58462000459565b81016020851015620005b5578190505b620005cd620005c48562000459565b8301826200055e565b50505b505050565b600082821c905092915050565b6000620005f560001984600802620005d5565b1980831691505092915050565b6000620006108383620005e2565b9150826002028217905092915050565b6200062b82620003d5565b67ffffffffffffffff811115620006475762000646620001a1565b5b6200065382546200040f565b6200066082828562000585565b600060209050601f83116001811462000698576000841562000683578287015190505b6200068f858262000602565b865550620006ff565b601f198416620006a88662000444565b60005b82811015620006d257848901518255600182019150602085019450602081019050620006ab565b86831015620006f25784890151620006ee601f891682620005e2565b8355505b6001600288020188555050505b505050505050565b610b5f80620007176000396000f3fe608060405234801561001057600080fd5b50600436106100885760003560e01c8063797ea25d1161005b578063797ea25d146100f157806381dbb5e11461010f578063ea8b5ca31461013f578063eb537e911461015d57610088565b80630f73d0b41461008d5780631386dc2d146100975780631730bdfe146100b5578063481c6a75146100d3575b600080fd5b610095610179565b005b61009f610226565b6040516100ac91906105ff565b60405180910390f35b6100bd6102b4565b6040516100ca919061063e565b60405180910390f35b6100db6102c8565b6040516100e8919061069a565b60405180910390f35b6100f96102ee565b604051610106919061069a565b60405180910390f35b61012960048036038101906101249190610834565b610314565b60405161013691906108ab565b60405180910390f35b6101476103f2565b60405161015491906108ab565b60405180910390f35b61017760048036038101906101729190610834565b610405565b005b600260009054906101000a900473ffffffffffffffffffffffffffffffffffffffff1673ffffffffffffffffffffffffffffffffffffffff163373ffffffffffffffffffffffffffffffffffffffff1614610209576040517f08c379a000000000000000000000000000000000000000000000000000000000815260040161020090610912565b60405180910390fd5b6001600260146101000a81548160ff021916908315150217905550565b6000805461023390610961565b80601f016020809104026020016040519081016040528092919081815260200182805461025f90610961565b80156102ac5780601f10610281576101008083540402835291602001916102ac565b820191906000526020600020905b81548152906001019060200180831161028f57829003601f168201915b505050505081565b600160009054906101000a900461ffff1681565b600260009054906101000a900473ffffffffffffffffffffffffffffffffffffffff1681565b600160029054906101000a900473ffffffffffffffffffffffffffffffffffffffff1681565b6000600260149054906101000a900460ff1615610366576040517f08c379a000000000000000000000000000000000000000000000000000000000815260040161035d906109de565b60405180910390fd5b6000801b60038460405161037a9190610a3a565b908152602001604051809103902054036103c9576040517f08c379a00000000000000000000000000000000000000000000000000000000081526004016103c090610a9d565b60405180910390fd5b6003836040516103d99190610a3a565b9081526020016040518091039020548214905092915050565b600260149054906101000a900460ff1681565b600260009054906101000a900473ffffffffffffffffffffffffffffffffffffffff1673ffffffffffffffffffffffffffffffffffffffff163373ffffffffffffffffffffffffffffffffffffffff1614610495576040517f08c379a000000000000000000000000000000000000000000000000000000000815260040161048c90610912565b60405180910390fd5b600260149054906101000a900460ff16156104e5576040517f08c379a00000000000000000000000000000000000000000000000000000000081526004016104dc906109de565b60405180910390fd5b6000801b6003836040516104f99190610a3a565b90815260200160405180910390205414610548576040517f08c379a000000000000000000000000000000000000000000000000000000000815260040161053f90610b09565b60405180910390fd5b806003836040516105599190610a3a565b9081526020016040518091039020819055505050565b600081519050919050565b600082825260208201905092915050565b60005b838110156105a957808201518184015260208101905061058e565b60008484015250505050565b6000601f19601f8301169050919050565b60006105d18261056f565b6105db818561057a565b93506105eb81856020860161058b565b6105f4816105b5565b840191505092915050565b6000602082019050818103600083015261061981846105c6565b905092915050565b600061ffff82169050919050565b61063881610621565b82525050565b6000602082019050610653600083018461062f565b92915050565b600073ffffffffffffffffffffffffffffffffffffffff82169050919050565b600061068482610659565b9050919050565b61069481610679565b82525050565b60006020820190506106af600083018461068b565b92915050565b6000604051905090565b600080fd5b600080fd5b600080fd5b600080fd5b7f4e487b7100000000000000000000000000000000000000000000000000000000600052604160045260246000fd5b61070b826105b5565b810181811067ffffffffffffffff8211171561072a576107296106d3565b5b80604052505050565b600061073d6106b5565b90506107498282610702565b919050565b600067ffffffffffffffff821115610769576107686106d3565b5b610772826105b5565b9050602081019050919050565b82818337600083830152505050565b60006107a161079c8461074e565b610733565b9050828152602081018484840111156107bd576107bc6106ce565b5b6107c884828561077f565b509392505050565b600082601f8301126107e5576107e46106c9565b5b81356107f584826020860161078e565b91505092915050565b6000819050919050565b610811816107fe565b811461081c57600080fd5b50565b60008135905061082e81610808565b92915050565b6000806040838503121561084b5761084a6106bf565b5b600083013567ffffffffffffffff811115610869576108686106c4565b5b610875858286016107d0565b92505060206108868582860161081f565b9150509250929050565b60008115159050919050565b6108a581610890565b82525050565b60006020820190506108c0600083018461089c565b92915050565b7f4e6f7420617574686f72697a6564000000000000000000000000000000000000600082015250565b60006108fc600e8361057a565b9150610907826108c6565b602082019050919050565b6000602082019050818103600083015261092b816108ef565b9050919050565b7f4e487b7100000000000000000000000000000000000000000000000000000000600052602260045260246000fd5b6000600282049050600182168061097957607f821691505b60208210810361098c5761098b610932565b5b50919050565b7f436f6e7472616374206578706972656400000000000000000000000000000000600082015250565b60006109c860108361057a565b91506109d382610992565b602082019050919050565b600060208201905081810360008301526109f7816109bb565b9050919050565b600081905092915050565b6000610a148261056f565b610a1e81856109fe565b9350610a2e81856020860161058b565b80840191505092915050565b6000610a468284610a09565b915081905092915050565b7f436572746966696361746520696420646f6573206e6f74206578697374000000600082015250565b6000610a87601d8361057a565b9150610a9282610a51565b602082019050919050565b60006020820190508181036000830152610ab681610a7a565b9050919050565b7f436572746966696361746520696420616c726561647920657869737473000000600082015250565b6000610af3601d8361057a565b9150610afe82610abd565b602082019050919050565b60006020820190508181036000830152610b2281610ae6565b905091905056fea2646970667358221220029b99f05b10548771e184f38df876bc45f50f738e331ab3426ec8fcf06dc97464736f6c63430008140033",
  "linkReferences": {},
  "deployedLinkReferences": {}
}